:020000040001F9
:1040000060330020BD410100CF410100D1410100DA
:1040100000000000000000000000000000000000A0
:10402000000000000000000000000000D34101007B
:104030000000000000000000D5410100D741010050
:10404000D9410100D9410100D9410100D941010004
:10405000D9410100000000002D5D0100D94101009F
:10406000D9410100D9410100D9410100D9410100E4
:10407000D9410100D9410100D9410100D9410100D4
:10408000D9410100D7560100D9410100D9410100B1
:10409000F9560100D941010033620100D941010004
:1040A000D9410100D94101000000000000000000DA
:1040B0000000000000000000000000000000000000
:1040C00000F002F800F03EF80CA030C808382418C0
:1040D0002D18A246671EAB4654465D46AC4201D140
:1040E00000F030F87E460F3E0FCCB6460126334234
:1040F00000D0FB1AA246AB463343184740230000CA
:1041000060230000103A02D378C878C1FAD8520769
:1041100001D330C830C101D504680C60704700007D
:104120000023002400250026103A01D378C1FBD8D3
:10413000520700D330C100D50B6070471FB51FBDBB
:1041400010B510BD02F040F91146FFF7F7FF00F07F
:10415000ABFB02F058F903B4FFF7F2FF03BC02F027
:104160005DF90000401E00BF00BF00BF00BF00BFE0
:1041700000BF00BF00BF00BF00BF00BF00BFF1D144
:104180007047000070B505460C46164602E00FCC9D
:104190000FC5103E102EFAD2082E02D303CC03C551
:1041A000083E042E07D301CC01C5361F03E0217859
:1041B0002970641C6D1C761EF9D270BD0A48026815
:1041C0000F210A4302600948804709480047FEE77B
:1041D000FEE7FEE7FEE7FEE7FEE7000005480649CA
:1041E000064A074B7047000024050040A942010021
:1041F000C14001006023002060330020602B0020BC
:10420000602B002032483349086070473248008CE8
:10421000C0B2012812D13048808C0007000F00285E
:104220000CD12D48806AF0210840402806D12A4848
:10423000C06A0840002801D1012070470020FCE737
:104240002548008CC0B201282CD12348808C00075F
:10425000000F002826D12048806AF021084000285D
:1042600006D11D48C06A0840002801D101207047CE
:104270001948806AF0210840102806D11648C06A03
:104280000840002801D10120F1E71348806AF0219D
:104290000840302806D11048C06A0840002801D1E3
:1042A0000120E4E70020E2E710B5FFF7C9FF00288E
:1042B00005D00A480A494860C8130A498861FFF7CF
:1042C000A5FF002802D001200749886010BD00002A
:1042D0000024F40000200020C00F00F0DFFF07C022
:1042E00000050040006C004000060040122000F075
:1042F000FAFA132000F0F7FA00BFBFF34F8FFB4824
:10430000FB49C860BFF34F8F00BF00BFFEE7044604
:104310000D462A462146F748FFF7E8FF10B5122060
:1043200000F0D8FA132000F0D5FA10BD38B500BF60
:104330000020F14B05220121009001F0E1F9044633
:1043400000BF2546002D05D000BFECA278212846ED
:10435000FFF7CCFF00BF00BF38BD3EB500BF6846C9
:10436000007801090901491C009168460078F02194
:1043700088431030009000BF0922E3A168467CDF2B
:10438000044600BF2546002D05D000BFDBA28B21CF
:104390002846FFF7ABFF00BF002001900290FF21ED
:1043A0009131684681804900C18000210181FF214F
:1043B0009131418101A87ADF044600BF2546002DD6
:1043C00005D000BFCDA295212846FFF78FFF00BF83
:1043D0003EBD30B591B0052101913C2102A801F00C
:1043E000EEFF022002900021684641730121018204
:1043F00001A905910021818402A800F04EFD044628
:1044000000BF2546002D05D000BFBCA2AF21284625
:10441000FFF76CFF00BF11B030BD30B585B014217F
:10442000684601F0CCFF0021684601700020019031
:104430006846017250210182B421418273DF044633
:1044400000BF2546002D05D000BFACA2C4212846E0
:10445000FFF74CFF00BF122000F045FA05B030BD59
:1044600030B595B0AB4B0FCB6C460FC4AA4968462C
:1044700062DF044600BF2546002D05D000BF9FA285
:10448000DF212846FFF732FF00BFA348017810A8BC
:104490008174A249018204AA14A90120A0DF044664
:1044A00000BF2546002D05D000BF94A2E621284676
:1044B000FFF71CFF00BF9949093110A801821421A0
:1044C00008A801F07CFF14A8089007A80990012112
:1044D0006846818592480C906846018500200790C7
:1044E00000BF6846007F01090901491C6846017741
:1044F000007FF021884310306946087700BF00BF75
:104500006846407F01090901491C68464177407FA0
:10451000F021884310306946487700BF6846807FA5
:1045200006218843811C68468177807F40084000CF
:10453000694688770020069000BF6846007E010922
:104540000901491C68460176007EF021884310303D
:104550006946087600BF00BF6846407E0109090130
:10456000491C68464176407EF021884310306946F8
:10457000487600BF6846807E06218843811C6846D5
:1045800081761C210DA801F01AFF06A8129008A838
:10459000007D10218843411808A80175007D202165
:1045A0008843411808A80175007D02218843811CB9
:1045B00008A80175007D08218843411808A80175E5
:1045C000407D02218843811C08A8417505A81190EF
:1045D00054480E9001F072FEC1B26846C18751483E
:1045E00001F06CFEC1B268468187002005906846E4
:1045F000807D06218843811C68468175807D400846
:104600004000401C6946887500BF6846007D01096E
:104610000901491C68460175007DF021884310306E
:104620006946087500BF00BF6846407D0109090161
:10463000491C68464175407DF02188431030694629
:10464000487500BF384B08AA0DA90020A2DF044618
:1046500000BF2546002D06D000BF28A2FF21103143
:104660002846FFF743FE00BF15B030BD70B50446C5
:104670002088102806D011280ED0502816D0522895
:1046800056D11FE0A08829490880122000F030F997
:10469000132000F02DF94CE00020C043234908808E
:1046A000132000F025F9FFF7B8FE42E0E0881E492C
:1046B0008988884205D1E08B022802D1132000F0BE
:1046C00012F936E00022114618480088A9DF054695
:1046D00000BF2E46002E06D000BF08A2FF213431B5
:1046E0003046FFF703FE00BF23E000000400FA0598
:1046F00000ED00E0EFBEADDEAC2000202E2E5C6DA4
:1047000061696E2E630000004D756C74696C696E92
:104710006B0000002C6401000E20002001900000BE
:104720000F20002010200020062000200420002060
:1047300000BF00BF70BD10B504462046FFF796FFCE
:1047400010BD70B500BF002350226C49082001F055
:1047500028FD054600BF2E46002E06D000BF684A41
:10476000FF2159313046FFF7C1FD00BF00BF65484A
:1047700001F04DFD044600BF2546002D06D000BFC8
:104780005F4AFF215D312846FFF7B0FD00BF70BDD5
:1047900010B586B00446102C31D15B4800885B49C7
:1047A00088422BD00120019059480078002801D17F
:1047B000012000E00020564908700020029003907C
:1047C0000490059053480188684601810121817257
:1047D0000021818101A804904D48059002A94A4812
:1047E0000088A6DF4A480078002803D1122000F094
:1047F0007FF802E0122000F076F800BF06E000BF6C
:104800003F4AFF2189312046FFF770FD00BF06B007
:1048100010BD70B500BF4049012001F0EFFA044619
:1048200000BF2546002D06D000BF354AFF2192313A
:104830002846FFF75BFD00BF00BF70BD70B500BF2D
:104840000023364A0121364801F053F9054600BFDE
:104850002E46002E06D000BF294AFF21A331304644
:10486000FFF744FD00BF00BF01F0A1F9044600BFFF
:104870002546002D06D000BF214AFF21A63128463B
:10488000FFF734FD00BF70BD70B53DDF044600BFCB
:104890002546002D06D000BF194AFF21AF3128461A
:1048A000FFF724FD00BF70BDFFF74BFFFFF736FD9C
:1048B000FFF73CFDFFF7ADFFFFF7C0FFFFF74DFD32
:1048C000FFF787FDFFF7CCFDFFF7A7FD00BFFFF760
:1048D000DBFFFCE701210522120707231B02D21888
:1048E0008300D1507047012181400E4A916070478A
:1048F000012181400B4AD160704700009C220020BA
:10490000FC4601003747010004200020FFFF0000A3
:104910003520002006200020EC2200206606000042
:104920003820002000050050F7B584B004460F463B
:1049300006980678B01C1F2803DC2079801C1F28ED
:1049400002DD0C2007B0F0BD1F20801B801E85B249
:104950000295B11C781802A97DDF03900398002806
:1049600001D00398EEE72068022808D16846008944
:10497000A84204DC09200190684605890BE0082064
:1049800001902079002804D02079A84201DC257903
:1049900001E068460589681CC2B23046711CCEB27F
:1049A0003A543046721CD6B20199395406980178AF
:1049B000A81C0818C1B2069801700020C2E7F8B51B
:1049C00005460C462078001D1F2801DD0C20F8BD8F
:1049D000684679DF0646002E01D03046F7E703210E
:1049E0002278501C2070A95419212278501C207064
:1049F000A954207841196846008800F08BFA217884
:104A0000401820700020E2E7F8B505460F4616462C
:104A10001C466868002801D10720F8BD2078801C5A
:104A2000298840181F2801DD0C20F6E72878401C53
:104A3000C1B22278501C2070B1542178481C2070DB
:104A400077542A8823789819696801F059FC2078EE
:104A50002978401820700020DFE730B50346107831
:104A6000C01C1F2801DD0C2030BD02241578681CF5
:104A700010704C550A241578681C10704C55157828
:104A8000681C10704B550020EEE7FFB587B0064656
:104A90001D46109C0020069020780590002747E0D6
:104AA000B900706841180A886846028149884181C6
:104AB000002203A902A864DF04900498002802D011
:104AC00004980BB0F0BD6846017B099881422ED155
:104AD0000698002801D0002000E0022001902078F4
:104AE0006946097B4118019808181F2801DD0C2030
:104AF000E7E70698002809D12078401C207022782A
:104B0000511C08982170A854012006902078421961
:104B100003A902A864DF04900498002801D0049837
:104B2000CFE720786946097B4018207000BF7F1CC2
:104B30003088B842B4DC0698002806D02178059861
:104B4000401C081AC1B2059829540020B9E7FFB5E6
:104B500081B0074615460A9E009602223846049BFD
:104B60000299FFF792FF0446002C02D0204605B0C0
:104B7000F0BD0096102229463846049BFFF785FFBA
:104B80000446002C01D02046F1E70020EFE7014663
:104B90000888062808DB08881922D201904205DD22
:104BA0000888E14A904201D00720704748880628CB
:104BB00008DB48881922D201904205DD4888DA4A8C
:104BC000904201D00720F0E70888D74A904208D0E9
:104BD0004888904205D008884A88904201DD072025
:104BE000E3E70020E1E7F8B506460D4614462078D5
:104BF000801D1F2801D90C20F8BD3046FFF7C7FFE4
:104C00000746002F01D03846F6E705212278501CD0
:104C10002070A95412212278501C2070A9542278A7
:104C20005119308800F076F92178401820702278E8
:104C30005119708800F06EF921784018207000201A
:104C4000DAE7F8B505460E4614462879801CC7B247
:104C50002078801CC0191F2801DD0C20F8BD781CAD
:104C6000C1B22278501C2070B154FF212278501C10
:104C70002070B15422789119288800F04BF92178DE
:104C800040182070A88800280EDDA868002801D1EF
:104C90000720E3E7AA8823789819A96801F030FB78
:104CA00020782979401820700020D7E7FEB5074604
:104CB0000E461446786B002801D10720FEBD002067
:104CC000019032E0796B0C22019850430D1828793D
:104CD000801CC0B200900098401CC1B22278501CC9
:104CE0002070B15416212278501C2070B1542278C3
:104CF0009119288800F00EF9217840182070A888B2
:104D000000280EDDA868002801D10720D6E7AA8870
:104D100023789819A96801F0F3FA207829794018C6
:104D200020700198401CC0B201903820C15D0198EC
:104D30008142C7DC0020C1E7F8B504460F4616469D
:104D40000025002030702068002809D032463946FE
:104D50002046FFF7E9FD0546002D01D02846F8BDA5
:104D60006079002808D031463846FFF728FE05460E
:104D7000002D01D02846F2E7208900280BDD3346BC
:104D80003A46012120460830FFF73EFE0546002D39
:104D900001D02846E3E7206900280BD000202169D4
:104DA000085632463946FFF758FE0546002D01D019
:104DB0002846D4E7A08A00280CDD3B4606220221C3
:104DC000204614300096FFF7C2FE0546002D01D0A4
:104DD0002846C4E7A08B00280CDD3B4607220321B0
:104DE00020461C300096FFF7B2FE0546002D01D08C
:104DF0002846B4E7A08C00280CDD3B461522142180
:104E0000204624300096FFF7A2FE0546002D01D073
:104E10002846A4E7E06A002809D032463946E06A0D
:104E2000FFF7E1FE0546002D01D0284697E7206BED
:104E3000002809D032463946206BFFF702FF0546AD
:104E4000002D01D028468AE73820005D002809DDC2
:104E5000324639462046FFF729FF0546002D01D08E
:104E600028467CE728467AE701460889002808D0CA
:104E7000C868002805D0C8680078042210400028BF
:104E800001D1072070470020FCE70146088900286F
:104E900001DD072070470020FCE7F3B593B00D4615
:104EA0000021129111911398002814D01398FFF744
:104EB000DBFF0446002C02D0204615B0F0BD12AA3C
:104EC00009A91398FFF738FF0446002C01D02046AB
:104ED000F3E709AE00E00026002D13D02846FFF7C7
:104EE000D4FF0446002C01D02046E6E711AA01A910
:104EF0002846FFF721FF0446002C01D02046DCE7BE
:104F000001AF00E0002710A803793A46017A304645
:104F100072DFD2E702460A70FF2000021040001242
:104F20004870022070470000FFFF000010B5002805
:104F300019DAFA4A03071B0F083B9B089B00D2585B
:104F40008307DC0EFF23A3409A438B071B0E8407C5
:104F5000E40EA3401A43F14B0407240F083CA408B5
:104F6000A4001A5118E0EE4A03231B02D21883084A
:104F70009B00D2588307DC0EFF23A3409A438B0784
:104F80001B0E8407E40EA3401A43E54B03242402BE
:104F90001B198408A4001A5110BD10B50446E1483D
:104FA000846003211120FFF7C1FF10BD10B501205F
:104FB0000004DD494860DC4940394860112000F0B8
:104FC000DDFC112000F0CCFC0120D84908602F2026
:104FD000FFF7C8F810BD10B5112001218140D04A5B
:104FE0008032116000BF01200004CF498860CE49A3
:104FF000403988600120CD4948602F20FFF7B2F882
:1050000010BDF0B5024628205043C94B1B68C1189B
:10501000C8480068401C002802D1C648026059E018
:10502000C4488B68006828246043C14C2468001978
:105030008068834217D8BF48006828235843BC4B78
:105040001B68C01880688B68C31ABA480068282497
:105050006043B74C246800198360B6480068486212
:10506000B448026036E08B68B24D2C6828680DE0C9
:1050700028254543AE4E3668AD19AD685B1B044626
:1050800028254543AA4E3668AD19686A451C002D8F
:1050900007D028254543A64E3668AD19AD689D4218
:1050A000E6D3451C002D0CD028254543A04E36687C
:1050B000AD19AD68EE1A282545439D4F3F68ED199F
:1050C000AE608B60486228256543994E3668AD19FD
:1050D0006A6200BFF0BD70B50246964C2168084672
:1050E00009E0904200D109E0014628244443904D54
:1050F0002D686419606A441C002CF2D100BF441C66
:10510000002C00D170BD814209D18A4C2468282529
:105110006C43874D2D686419646A864D2C60282481
:105120004443834D2D686419A36828244443804D6B
:105130002D686419656A28244C437D4E3668A4198D
:10514000656228244C437A4D2D686419606A441CBA
:10515000002C0CD028244443754D2D686419A46894
:10516000E51828244443724E3668A419A56000BF90
:10517000C8E710B5112000F0FAFB10BD10B51420DF
:1051800000F0F5FB10BD70B504466B4800680028C0
:1051900013D0694A216AE06912689047054600BF4A
:1051A0002E46002E07D000BF64A2FF2155313046A5
:1051B000FFF79CF800BF00BF02E0E169206A884762
:1051C00070BDF8B55B480068401C00283AD0002745
:1051D00000F006FC044665480168204600F003FC28
:1051E00006465448056811E028206843504909687C
:1051F0004418A068B04200D90BE0A068361AA06835
:10520000C719656A2046FFF7BEFF00BF681C00286B
:10521000EAD100BF5648007856490978884209D13A
:1052200054480078401CC0B252490870022801D18D
:10523000002008704F48007880004F490F50FFF75A
:105240009DFF00BFF8BD014649480078494A1278E1
:1052500090421DD046480078401C454A10701046C8
:105260000078022801D100201070414800788000A9
:10527000414A105808603D4A0868126880183B4A45
:105280001060104600680002000A1060012070479C
:105290000020086000BFFAE7FEB5264800680190CC
:1052A00036480078009074E00098C00034490968DE
:1052B0004418257869E01820684361680F18681C55
:1052C000C5B2A078A84200D100253868022802D0D3
:1052D000032857D10EE0282178684843144909680B
:1052E0004618307E002804D07868FFF7F4FE0020CE
:1052F000307648E00CE00F490968282251430C4AF7
:1053000012688818002101760A4A416A116000BFBC
:1053100008480068401C0028EDD134E01CED00E096
:1053200000E100E000150140401301400010014081
:105330004820002054200020682000202E2E5C2EC3
:105340002E5C2E2E5C2E2E5C2E2E5C2E2E5C536F31
:10535000757263655C6170705F636F6D6D6F6E5CBD
:105360006170705F74696D65722E63005820002053
:1053700064200020652000205C2000204C200020BC
:105380005020002000BF00BF00BF6078A84292D12B
:1053900000BF0098411EC9B20091002884D1FE4888
:1053A00001680198814201D00120FEBD0020FCE788
:1053B000F0B50346002426E0F74E366828277E43E2
:1053C000F64F3F68F01986689E4203D98668F61A40
:1053D00086601DE086689B1B8668341900268660FF
:1053E0000676ED4E3568EC4F466A3E604669002E03
:1053F00008D00E193602360AC6604669066116687C
:105400004662156000BFE4480068401C0028D3D104
:1054100000BFF0BDFEB50746DF4800680290E048D7
:10542000007801906BE00198C000DE4909684518DA
:105430005DE0781C002807D03E4628207043D749FD
:1054400009684418676A23E02978182359436A6871
:1054500050182978491C29702978AA78914201D1DD
:1054600000212970466828217143CC4A12688C18A3
:105470000168012902D1217E002900D037E081682E
:10548000E160C1682161016961614169216200BF18
:10549000C549E0680968401A0002000AC349884209
:1054A00008D2C149E068096800F09DFA21694018F6
:1054B000A06011E0BC48E168006800F094FA009038
:1054C00021690098814204D921690098081AA060D6
:1054D00001E00020A06000BF0020E060206101200A
:1054E0002076801E60623046FFF78BFD00BF781C7F
:1054F00000289ED12878697888429AD100BF019807
:10550000411EC9B2019100288DD1A34801680298BB
:10551000814201D00120FEBD0020FCE7FEB505461A
:105520009D480068401C002835D09B480068282111
:1055300048439A4909684018866800F051FA029079
:10554000994804682146029800F04DFAC01C019069
:10555000681C002801D1FFF729FD0198B04201D253
:10556000304600E0019804192402240A204690499C
:10557000086000BF00F034FA00900299009800F033
:1055800032FAC71C2046029900F02DFA874201D951
:10559000FFF7EFFD01E0FFF71EFDFEBDFEB50020A9
:1055A000C0430190804804687B4807686846FFF75D
:1055B0004AFE0546FFF770FE0646002D05D001AAFB
:1055C00021460098FFF7F4FE01260198FFF722FF1D
:1055D000002800D00126002E02D03846FFF79EFF9B
:1055E000FEBD4170704770B502460B465078411CB5
:1055F0009078884200D100211078884201D10020A3
:1056000070BD196050781826704355682C182046D4
:10561000F6E7FFB581B005460E461746E900614A38
:10562000126888186946FFF7DEFF0446002C02D195
:10563000042005B0F0BD01202060666000F0D0F9C4
:10564000A060E760049820610A986061E900554A0B
:10565000126888180099FFF7C4FFFFF78FFD00203C
:10566000E7E7F8B504460E46E1004E4A126888188E
:105670006946FFF7B8FF0546002D01D10420F8BDAB
:10568000022028606E60E100464A1268881800997E
:10569000FFF7A7FFFFF772FD0020F0E738B50446DB
:1056A000E100404A126888186946FFF79CFF0546EA
:1056B000002D01D1042038BD03202860001F686040
:1056C000E100384A126888180099FFF78AFFFFF74F
:1056D00055FD0020EFE710B5002036490860002195
:1056E000344841608160C16000203249403908601F
:1056F0004860FFF766FD10BD10B5FFF74FFF10BD06
:10570000FFB581B00E4617461C4620468107890F1B
:10571000002901D1012100E00021002902D1072048
:1057200005B0F0BD002C01D10720F9E7FFF753FCCD
:1057300021490A980860214806701848046000252D
:105740000CE0002128206843144A126811502820D8
:105750006843124A1268801801766D1CB542F0DB6E
:1057600028207043041903200D4908700D48046077
:10577000183400250CE0E9000A4A12688818002154
:105780000170417087704460182179430C196D1CB9
:10579000032DF0DB002013E05420002048200020DF
:1057A0004C2000205020002058200020FFFF7F00C8
:1057B0004015014040110140682000204420002095
:1057C000C0438B49086000208A4908708A490870E4
:1057D000142000F0D3F803211420FFF7A7FB1420B6
:1057E00000F0BEF80198FFF7D8FB00F0F9F8834904
:1057F0000860002094E770B503460C4680480068B6
:10580000002801D1082070BD002A01D10720FAE745
:10581000002B01D10720F6E700211CE02820484397
:10582000774D2D682858002814D101252820484399
:10583000734E3668355028204843714D2D68401905
:105840004460282048436E4D2D684019C26119609C
:105850000020D8E7491C6B4800788142DEDB042039
:10586000D1E710B500F092F8012802D0032804D146
:1058700001E0002403E0012401E0022400BF00BF96
:10588000204610BDFEB504460D4616465C4800682D
:10589000002801D10820FEBD5A480078844201D278
:1058A000052D01D20720F6E72820604354490968F6
:1058B0000858012801D00820EDE72820604350490E
:1058C000096840184068012801D1284600E00020FE
:1058D0000746FFF7C6FF3B462A4621460096019041
:1058E000FFF797FED7E770B50446454800680028E3
:1058F00001D1082070BD43480078844201D30720BD
:10590000F8E7282060433E4909680858012801D07B
:105910000820EFE7FFF7A5FF05462146FFF7A1FEA8
:10592000E8E710B536480068002801D1082010BD0E
:10593000FFF797FF0446FFF7B1FEF8E710B50446FE
:1059400000F04EF82060002010BD70B505460E46F0
:1059500014463146284600F046F82060002070BD0D
:10596000C206D20E01219140274A11607047C2063B
:10597000D20E01219140254A11607047C206D20E15
:1059800001219140214A80321160704710B52048B2
:105990004068C105C90D002920D00A46103A1046BA
:1059A00000280DDA1A4B1C330407240F083CA40806
:1059B000A4001B598407E40EE3401B069B0F0BE079
:1059C000114B032424021B198408A4001B598407CB
:1059D000E40EE3401B069B0FD8B210BD0420FCE789
:1059E0000C48406870470246501A0002000A70478F
:1059F0005420002064200020652000205820002032
:105A0000482000204420002000E100E000E200E007
:105A100000ED00E00015014070B504468C480068B8
:105A2000002812D021788A4AA0681268904705465B
:105A300000BF2E46002E06D000BF86A22921304688
:105A4000FEF754FC00BF00BF02E02078A168884741
:105A500070BDF1B582B00027029C69468A48007883
:105A600000F0DDFA01900198002800D0FEBD8749C2
:105A700000980968084007468548006800998843EF
:105A80000743204638400446002C19D0002512E078
:105A90000C2068437F490968461831780120884006
:105AA0002040002805D0B068002802D03046FFF71B
:105AB000B3FF681CC5B2784800788542E8DB00BFB8
:105AC00000BFD3E770B504460D4674480068FFF781
:105AD0000AFF0646002E00D070BD2046284302462D
:105AE0006F4801686D480068FFF7CCFE064600BFAE
:105AF000F2E7FFB583B005460C461646052E02D2E6
:105B0000072007B0F0BD634805606348047064482F
:105B100006604F490698086000205C4908605C49AF
:105B200008602CE00C216143481902780192416819
:105B30000291029989000522120707231B02D3183C
:105B4000019A9200995000BF4178002901D00121AB
:105B500000E00021027891404C4A126811434B4A00
:105B600011604178002901D1012100E00021027873
:105B70009140474A12681143454A116000BF2046D0
:105B8000611ECCB20028CDD1464B414802683F4847
:105B900001683D4800F06CF90746002F01D03846F7
:105BA000AFE7414A00213D48FFF725FEA9E710B5C0
:105BB00038480068002801D1082010BD324800781C
:105BC00000F09BF9F9E710B532480068002801D1D0
:105BD000082010BD2C48007800F000FA0446002C84
:105BE00001D02046F5E72D480068FFF77CFEF0E77E
:105BF000F8B507460C46002626480068002801D163
:105C00000820F8BD69462048007800F008FA0546EB
:105C1000002D01D02846F4E70120B8400646009840
:105C20003040002809D11A4800683040002801D0CF
:105C3000012000E00020207008E014480068304097
:105C4000002801D0012000E0002020700020D8E7CB
:105C5000802000202E2E5C2E2E5C2E2E5C2E2E5CA4
:105C60002E2E5C2E2E5C536F757263655C617070B6
:105C70005F636F6D6D6F6E5C6170705F6275747481
:105C80006F6E2E630000000084200020782000202A
:105C9000742000206C20002070200020882000202C
:105CA0007C200020C55A0100535A0100F0B502467D
:105CB0000C46002037E001238340194623460B4061
:105CC000002B2FD0D5680D40002D05D101235B049A
:105CD000D5680D43D56004E003231B04D5688D43CC
:105CE000D56005252D0707263602AD198600AD596A
:105CF00003263604B5430526360707273F02F61963
:105D00008700F55105252D0707263602AD198600B7
:105D1000AD591D430526360707273F02F6198700B0
:105D2000F55100BF401C2028C5D3F0BDFEB5E448A6
:105D300006690020E349C863002529E01420684370
:105D4000E149096844180120A840E0490968084071
:105D500000281BD0E068C043704021680840074617
:105D600039462046FFF7A2FFA068B04338400090B4
:105D7000606830403840019000990198084300283D
:105D800003D0226900990198904700BF681CC5B2F2
:105D9000CF4800788542D1DBFEBD10B5014600201A
:105DA00029E014224A43C84B1B689A5801238340B8
:105DB0001A40002A1ED00522120707231B02D21800
:105DC0008300D25803231B049A4305231B0707248F
:105DD00024021B1984001A510522120707231B02F3
:105DE000D2188300D25805231B07072424021B194D
:105DF00084001A51401C2028D3D310BD70B505462D
:105E00000C46002C01D1072070BD20468107890F68
:105E1000002901D1012100E00021002901D1072042
:105E2000F2E7A9480460AB4805700020A849087053
:105E3000A6490860A7480078142250430146A248AA
:105E4000006800F0BCFA0020C043A3498860062027
:105E500001218140A14A116000BF012100F0F9F841
:105E60000620012181409E4A116000BF0020CBE73F
:105E7000F8B504460D4616461F46934800680028AC
:105E800001D10820F8BD002F01D10720FAE7904882
:105E9000007890490978884201DB0420F2E728461F
:105EA00030438B49097814225143874A1268505075
:105EB00087480078142148438349096840184560A1
:105EC00083480078142148437F4909684018866058
:105ED0007F480078142148437B49096840180761CE
:105EE0007B48007820707A480078401C7849087018
:105EF0002078FFF752FF0020C4E7F0B50246724851
:105F00000068002801D10820F0BD71480078824265
:105F100001DB0720F8E700206A4BD8636848046972
:105F20006A480068002802D158066B4B586001206F
:105F30009040664B1B681843644B18600023142084
:105F40005043614D2D684019C360002142E0012398
:105F50008B401846142353435B4D2D68EB58034088
:105F6000002B36D025460540002D02D003231B040C
:105F70000EE001235B0414255543534E3668AD19DA
:105F8000ED680543142656434F4F3F68F619F560F8
:105F900005252D0707263602AD198E00AD590326BB
:105FA0003604B5430526360707273F02F6198F004A
:105FB000F55105252D0707263602AD198E00AD597E
:105FC0001D430526360707273F02F6198F00F551B6
:105FD00000BF491C2029BAD3002095E710B504461C
:105FE00039480068002801D1082010BD38480078E1
:105FF000844201DB0720F8E72046FFF7CEFE0120B0
:10600000A040324909688143304801600068002897
:1060100003D10120C007304988600020E5E710B5B2
:10602000024629480068002801D1082010BD2848F0
:106030000078824201DB0720F8E714205043224C0D
:10604000246803191E4800691C682040086000206D
:10605000ECE710B5002819DA224A03071B0F083BAA
:106060009B089B00D2588307DC0EFF23A3409A4372
:106070008B071B0E8407E40EA3401A43194B040739
:10608000240F083CA408A4001A5118E0144A032362
:106090001B02D21883089B00D2588307DC0EFF2313
:1060A000A3409A438B071B0E8407E40EA3401A43B8
:1060B0000B4B032424021B198408A4001A5110BDA1
:1060C0000005005040610040942000208C200020FA
:1060D00091200020902000200063004080E200E03A
:1060E00000E100E01CED00E070B506460C461546E8
:1060F00029462046FEF70BF970BDF8B55A480078DE
:10610000002800D1F8BD59480068002801D10120BD
:1061100000E00020054656480068002801D1012013
:1061200000E00020064600BF002D14D168464EDF77
:106130000446052C01D101250CE0002C06D000BF3F
:106140004CA269212046FEF7D1F803E047490098A8
:106150000968884700BF002E1AD154480088009073
:1061600069465348006860DF0446052C01D10126CA
:106170000DE0002C06D000BF3EA280212046FEF795
:10618000B5F804E04A48006839490968884700BF03
:10619000002D02D0002E00D000E0C5E700BF00BFF8
:1061A000B0E7FFB581B00C4616461F46002C02D161
:1061B000072005B0F0BD20468107890F002901D1D5
:1061C000012100E00021002901D10720F1E7384832
:1061D000046036480680374807603749019810DF69
:1061E0000546002D01D02846E3E701201E4908702E
:1061F000162023DFDDE710B511DF0446002C01D0A7
:10620000012000E0002018490870204610BD01461A
:10621000002901D10E207047154801600020FAE7DF
:106220000146002901D10E2070471048016000206E
:10623000FAE770B51F480068002811D01D480068B3
:106240008047044600BF2546002D07D000BF09A2A5
:10625000FF2133312846FEF749F800BF00BF01E0B7
:10626000FFF74BFF70BD0000A2200020A8200020F7
:10627000A42000202E2E5C2E2E5C2E2E5C2E2E5C5A
:106280002E2E5C2E2E5C536F757263655C73645F9B
:10629000636F6D6D6F6E5C736F6674646576696352
:1062A000655F68616E646C65722E6300A0200020DB
:1062B0009C20002098200020E960010030B5441C9B
:1062C00003E00178401C00290DD08107F9D10B4B68
:1062D000DD0104C8D11A91432940FAD0001B0A06F7
:1062E00003D0C01E30BD001B30BD0A0401D0801E8B
:1062F00030BD0902FCD0401E30BD0000010101018B
:10630000F8B5042A2CD3830712D00B78491C0370EC
:10631000401C521E83070BD00B78491C0370401C95
:10632000521E830704D00B78491C0370401C521E78
:106330008B079B0F05D0C91ADF002023DE1B08C97D
:106340000AE0FDF71FFFF8BD1D4608C9FD401C46C9
:10635000B4402C4310C0121F042AF5D2F308C91A06
:10636000521EF0D40B78491C0370401C521EEAD414
:106370000B78491C0370401C012AE4D40978017091
:10638000F8BD01E004C0091F0429FBD28B0701D529
:106390000280801CC90700D00270704700290BD012
:1063A000C30702D00270401C491E022904D3830790
:1063B00002D50280801C891EE3E70022EEE700225E
:1063C000DFE7704770477047754600F023F8AE4628
:1063D000050069465346C008C000854618B020B580
:1063E000FDF7FCFE60BC00274908B6460026C0C584
:1063F000C0C5C0C5C0C5C0C5C0C5C0C5C0C5403D7D
:1064000049008D4670470446C046C0462046FDF709
:10641000A2FE000000487047002300200149182018
:10642000ABBEFEE72600020070470000B35855409F
:10643000506011E38F96080000009A665C640100CA
:1064400000200020AC0000000441010008650100AC
:10645000AC200020B4120000204101000024F40010
:10646000FFFF000000000000000000004D6F6469A5
:10647000666961626C65206D756C74696C696E6BC0
:106480005F7065726970686572616C2044617461E7
:106490000000000010000000030000009147010010
:1064A00000000000000000000000000000000000EC
:1064B00000000000000000000000000000000000DC
:1064C00000000000000000000000000000000000CC
:1064D00000000000000000000000000000000000BC
:1064E00000000000000000000000000000000000AC
:1064F000000000000000000000000000000000009C
:08650000000000000000000093
:04000005000140C1F5
:00000001FF
