:020000040001F9
:10400000D03B0020BD410100CF410100D141010062
:1040100000000000000000000000000000000000A0
:10402000000000000000000000000000D34101007B
:104030000000000000000000D5410100D741010050
:10404000D9410100D9410100D9410100D941010004
:10405000D941010000000000AD770100994801003E
:10406000D9410100D9410100D9410100D9410100E4
:10407000D9410100D9410100D9410100D9410100D4
:10408000D9410100A9590100D9410100D9410100DC
:10409000355A0100D9410100C7620100D941010030
:1040A000D9410100D94101000000000000000000DA
:1040B0000000000000000000000000000000000000
:1040C00000F002F800F03EF80CA030C808382418C0
:1040D0002D18A246671EAB4654465D46AC4201D140
:1040E00000F030F87E460F3E0FCCB6460126334234
:1040F00000D0FB1AA246AB4633431847983D000058
:10410000B83D0000103A02D378C878C1FAD85207F7
:1041100001D330C830C101D504680C60704700007D
:104120000023002400250026103A01D378C1FBD8D3
:10413000520700D330C100D50B6070471FB51FBDBB
:1041400010B510BD03F06FFE1146FFF7F7FF00F04A
:1041500091F903F087FE03B4FFF7F2FF03BC03F00D
:104160008BFE0000401E00BF00BF00BF00BF00BFAD
:1041700000BF00BF00BF00BF00BF00BF00BFF1D144
:104180007047000070B505460C46164602E00FCC9D
:104190000FC5103E102EFAD2082E02D303CC03C551
:1041A000083E042E07D301CC01C5361F03E0217859
:1041B0002970641C6D1C761EF9D270BD0A48026815
:1041C0000F210A4302600948804709480047FEE77B
:1041D000FEE7FEE7FEE7FEE7FEE7000005480649CA
:1041E000064A074B70470000240500400D420100BD
:1041F000C1400100D02B0020D03B0020D033002054
:10420000D03300201D491C48086070471C48018CB1
:10421000C9B2012917D1828C120714D1028D12065E
:10422000130F03D1838D1B061B0F1ED0120F012A03
:1042300003D1838D1B061B0F17D0032A03D1828D58
:104240001206120F11D001290ED1818C09070BD152
:10425000018D0906090F042906D1808D0006000F83
:1042600002D10849012088607047084A0649516018
:10427000D113074A9161EBE70024F40000200020ED
:10428000C00F00F000060040DFFF07C0000500403F
:10429000006C0040BFF34F8FF749F648C860BFF38A
:1042A0004F8FFEE7BFF34F8FF349F248C860BFF36B
:1042B0004F8FFEE7BFF34F8FEF49EE48C860BFF363
:1042C0004F8FFEE7BFF34F8FEB49EA48C860BFF35B
:1042D0004F8FFEE710B500F046FB10BD10B5E74864
:1042E0004188E74800F041FF00280FD008280DD092
:1042F000E44988420AD0E449884207D0BFF34F8F8F
:10430000DD49DC48C860BFF34F8FFEE710BD10B534
:104310000868002801D001280DD102F047FB0028D1
:1043200009D0082807D0BFF34F8FD349D148C860C0
:10433000BFF34F8FFEE710BDFF222D32CF4910286B
:1043400009D0112810D0BFF34F8FCB49C948C8609E
:10435000BFF34F8FFEE74888801C48804888904212
:1043600001D93C20488070474888801E4880488892
:104370003C28F8D24A80704710B502F0FBFE10BD11
:10438000F8B5074602F039F83946BD4800F0DCFDC3
:104390003946BE4800F0CCFC384600F0EEFF3888C5
:1043A000B44CB54DB54E102818D0112842D0132862
:1043B00053D019285DD1B87900285AD100F052FBAA
:1043C000B449B3480860091D086031DF002850D0A7
:1043D000BFF34F8FEC60BFF34F8FFEE700F042FB5F
:1043E000B8883080B42070800121002209047068F0
:1043F00001F0C1FB002805D0BFF34F8FEC60BFF385
:104400004F8FFEE701210022C903B06801F0B3FB22
:10441000002805D0BFF34F8FEC60BFF34F8FFEE74E
:1044200003F066F9002824D0BFF34F8FEC60BFF390
:104430004F8FFEE702F0CEF9002805D0BFF34F8F73
:10444000EC60BFF34F8FFEE731DF002811D0BFF3E0
:104450004F8FEC60BFF34F8FFEE78F4A002130880B
:104460007FDF002805D0BFF34F8FEC60BFF34F8F85
:10447000FEE7F8BD9CB00020884B06220421009086
:1044800001F0DCFA7B4C7C4D002805D0BFF34F8F48
:10449000EC60BFF34F8FFEE7814A0121814801F0B4
:1044A00041FB002805D0BFF34F8FEC60BFF34F8F67
:1044B000FEE77D4A01217D4801F034FB002805D04C
:1044C000BFF34F8FEC60BFF34F8FFEE778490120B9
:1044D00003F0BAF9002805D0BFF34F8FEC60BFF3AB
:1044E0004F8FFEE70023734A0221734803F0BDF8A3
:1044F000002805D0BFF34F8FEC60BFF34F8FFEE76E
:10450000002350226D49082001F0ACFE002805D0A0
:10451000BFF34F8FEC60BFF34F8FFEE7684801F0A9
:10452000C2FE002805D0BFF34F8FEC60BFF34F8F62
:10453000FEE7644801F0BFFE002805D0BFF34F8FAF
:10454000EC60BFF34F8FFEE702F059FE002805D064
:10455000BFF34F8FEC60BFF34F8FFEE701A911202F
:1045600003F0E1F8002805D0BFF34F8FEC60BFF3F4
:104570004F8FFEE7544E70693704401C05D03869F0
:1045800081B2706903F058FB00E078696946401E0B
:1045900008727069401C05D0386981B2706903F0F7
:1045A0004BFB00E078696946C01E48720026474808
:1045B000039604900879887202A802F021FB002873
:1045C00005D0BFF34F8FEC60BFF34F8FFEE7112094
:1045D000694608710A223EA101A87CDF002805D0A7
:1045E000BFF34F8FEC60BFF34F8FFEE73B4878DFA0
:1045F000002805D0BFF34F8FEC60BFF34F8FFEE76D
:10460000FF209130029669460396088142004A8154
:104610008E81C88102A87ADF002805D0BFF34F8FB2
:10462000EC60BFF34F8FFEE7062168462C4A01700D
:104630005168106892681191109012923C2101A863
:1046400003F0F8FA0220019001216846417281814D
:1046500003270490078410A80990002101A801F005
:104660005DF900283ED0BFF34F8FEC60BFF34F8F52
:10467000FEE700000400FA0500ED00E00420002041
:104680005C2400200330000001340000442400209A
:104690000C00030040070050102000201C210020C7
:1046A000D542010008200020DD4201000C2000203E
:1046B0001C2400206606000018200020CC230020C7
:1046C000814301007943010000100010C542010040
:1046D0004E6F726469635F48524D000041030000F1
:1046E000887E01006048282146618661C6610662B5
:1046F00046625E48067006720182B421418203213F
:1047000018A801725A48109011961396149610A882
:1047100006711AA812900120014610A810310173E9
:104720000020014610A841730020014610A88173A3
:104730000120014610A81031C1730020014610A8C5
:10474000017401464B4800F027FC002805D0BFF358
:104750004F8FEC60BFF34F8FFEE7012001461596A7
:1047600016961796189618A81031199641700120C0
:10477000014618A8103181700020014618A8C170A8
:104780000120014618A810310171012710A80776F1
:10479000642118A8017015A9374800F0F4FA002820
:1047A00005D0BFF34F8FEC60BFF34F8FFEE7402182
:1047B000684603F03FFA31A1684601F0EBF80120AA
:1047C000014608A8103101770020014608A841776A
:1047D000684600F0B8F9002805D0BFF34F8FEC60B1
:1047E000BFF34F8FFEE70520C003009601900290B3
:1047F0000396049603210596684601731D48818936
:104800006846C181077422480690684600F083FD1F
:10481000002805D0BFF34F8FEC60BFF34F8FFEE74A
:104820001C491E2008808878E12238431040DF228E
:104830000C30104088700720C870102008710B4899
:1048400073DF002805D0BFF34F8FEC60BFF34F8FAD
:10485000FEE700F0D1F83DDF0028FCD0BFF34F8F1A
:10486000EC60BFF34F8FFEE71C24002030240020B3
:104870000F4301005C240020442400204E6F72642A
:10488000696353656D69636F6E647563746F7200FD
:10489000B54201001020002047480168002961D07E
:1048A00010B50021016045488068454A0121C0B229
:1048B00051604B2109014843FF2103F0BDF941003C
:1048C0004018FF300F303F4980B2884201D3642145
:1048D00036E03D4A904209D9081A3A2148436421FA
:1048E00003F0B8F96421081AC1B229E037498842B7
:1048F00009D9101A18214843A02103F0ABF92A2145
:10490000081AC1B21CE0324A90420AD9081A0C2196
:104910004843FF212D3103F09DF91221081AC1B23D
:104920000EE02C4988420AD9101A06214843FF217B
:10493000553103F08FF90621081AC1B200E00021B9
:10494000254800F0C5FA00280BD0082809D02349D3
:10495000884206D02249884203D022A25321FFF781
:1049600099FC10BD704770B522480124446013487B
:1049700018214160104E002535600460072027DFB4
:10498000002803D017A26921FFF784FC0321072028
:1049900028DF002803D013A26C21FFF77BFC07203F
:1049A00023DF002803D00FA26F21FFF773FC3560CF
:1049B0000348046070BD00000071004000750040B5
:1049C00000700040B80B0000540B0000B40A000057
:1049D000880900003408000044240020033000004F
:1049E000013400002E2E5C626174746572792E634E
:1049F000000000000073004070B51F48012484606F
:104A00001E4D1F492A46002044DF002803D01DA266
:104A10005521FFF73FFC012042DF002803D019A2F7
:104A20005A21FFF737FC1A480021416081600921B3
:104A300001611848C460194A1749116018490C608F
:104A40000121184A8904D1601849174A0A6100BF38
:104A500000BF00BF2C60164A0A6100BF00BF00BF44
:104A6000046070BD1149002008610A4901204860B6
:104A70000C498004C8607047400700500060004047
:104A8000409100402E2E5C6C65642E630000000097
:104A90000095004000900040841E000040950040BA
:104AA0000092004000050050031F02000065004016
:104AB00003120300F0B58FB01D4614460E000746E2
:104AC00004D17AA26D210020FFF7E4FB002C04D171
:104AD00076A26E210020FFF7DDFB00200090019000
:104AE0000290039004900590694606900A7802218E
:104AF0000A4369460A70012208A98A7069460F8430
:104B000007902A780A776A784A77897FF9221140D4
:104B1000F722891C1140EF2211404A0852006946D1
:104B20008A7708A9099107A90A910B900C90694608
:104B30008C85C8850C866A480D9609AA0088149B46
:104B4000A2DF0FB0F0BD30B585B004460120694644
:104B5000887164488880624A01A90120A0DF00288A
:104B60007ED1228825463C35002A08D05E48009038
:104B70002B465E486168FFF79DFF002870D12289AF
:104B8000002A08D05A4800902B465A48E168FFF79F
:104B900091FF002864D1228A002A08D0564800904C
:104BA0002B4656486169FFF785FF00287CD1228B90
:104BB000002A08D0524800902B465248E169FFF77E
:104BC00079FF002870D1228C002A08D04E4800902E
:104BD0002B464E48616AFFF76DFF002864D1228D95
:104BE000002A08D04A4800902B464A48E16AFFF75D
:104BF00061FF002858D1206B002829D0027869462F
:104C00000A720188FF22120211400A0A69464A729A
:104C1000FF220168120411400A0C69468A72016879
:104C20002B460A0E6946CA7202790A73027A4A73DF
:104C300001890A0A69468A7380680822000CC873D1
:104C40003548009002A93548FFF734FF00282BD1E2
:104C5000606B00280BD03249009102792B4600E0AE
:104C600022E001682F48FFF725FF00281CD1A06B28
:104C7000002818D0027869460A7242884A72120ADD
:104C80008A728288CA72120A0A73C0884873000A3C
:104C90008873254800902B46072202A92348FFF776
:104CA00009FF002800D1002005B030BD2E2E5C2E5B
:104CB0002E5C2E2E5C2E2E5C2E2E5C536F75726336
:104CC000655C626C655C626C655F73657276696376
:104CD00065735C626C655F6469732E63000000003D
:104CE000302000200A18000032200020292A00006D
:104CF0003A200020242A000042200020252A00001B
:104D00004A200020272A000052200020262A0000E6
:104D10005A200020282A000062200020232A0000B8
:104D20006A2000202A2A000072200020502A000059
:104D300008B50A88102A1AD0112A1AD0502A1BD175
:104D4000027D002A18D0CA884389891D9A4213D14E
:104D50000A8B022A10D10268002A0DD0CA7E8B7EEF
:104D600011021943C907C90F07D0002106E089883D
:104D700001E00021C943418208BD01210091026880
:104D80006946904708BDF0B5054693B008682860AD
:104D90000020C043688208792875FF202874012705
:104DA0000E4668468773644981812A1D03A93846E7
:104DB000A0DF00287ED1287D002400280DD001200E
:104DC00001466846103101940171717B417181790E
:104DD000F92001406846891C817105940694079466
:104DE000089409940A9469460B94087D02210843AB
:104DF000694608752A7DEF21002A02D0102210434F
:104E000000E008406A461075287D002800D001A8FF
:104E10000A90012268468272484B03810094B37B5A
:104E20000370F37B43708078F9231840F723801CCC
:104E300018400F4638404108490068468170317B70
:104E4000017402A80C9068460E940F940D9002878E
:104E50004487828704A81090A888AB1D0CAA05A9D6
:104E6000A2DF002832D1B06800282DD00120694689
:104E70008872334808810094307C087000204870A4
:104E80008878F9210840F721801C08403840400804
:104E900040006946887011A8B16800F075FD02A94C
:104EA0000C9169460E940F940D9108874C87888762
:104EB00011A800E00AE010902A46E8880E320CA9FA
:104EC000A3DF002802D100E0EC81204613B0F0BD42
:104ED00033B486B004466946227C097F00208A42AA
:104EE00022D00125684605822174E08807AB04AA18
:104EF0000021A4DF002817D1608A1249884216D009
:104F0000207D002813D00020009001900290694677
:104F100003900D82E2880A808D70888004A8029038
:104F200007A80390608AA6DF08B030BC704708B0BD
:104F300030BC0820704700000F180000192A00003C
:104F400008290000FFFF000008B50A88102A17D0C2
:104F5000112A17D0502A18D1CA888389891D9A42EC
:104F600013D10A8B022A10D10268002A0DD0CA7E02
:104F70008B7E11021943C907C90F07D0002106E033
:104F8000898801E00021C943018408BD0121009105
:104F900002686946904708BDF3B504469FB0209863
:104FA0002646006820602098203600796071002035
:104FB000C0432084254600274035B770AF810120CB
:104FC00010A98875BA488882A21D15A90120A0DF02
:104FD00000287DD10021481C0307209A1B0F68463A
:104FE000103307910377137B4377837FF9200340C6
:104FF00068469B1C83770191009102910391049173
:1050000006910378102003436846037007A80590B3
:10501000012710A88774A74B03820D91537B08A822
:105020000375927B4275827DF9200240F720921C25
:105030000240EF2002403A4308A882751091119176
:10504000129114A808A90E9017910DA800210F9095
:105050001A9161792046002901D004211A91B27871
:105060000221002A02D01A9A0A431A92002208AB9F
:105070005A70A9890227002903D01A9A10231A43CB
:105080001A92002600291ADDBA1C142A0AD9A98905
:10509000891B4A007100091820462430243102F08F
:1050A00083FD0CE07100179B0918898CDF1939709A
:1050B000090A7970A989761CD7B2B142E4DCA889C3
:1050C000801BA88117991A98087010A8078000E023
:1050D00049E0002514214580818008A812902346CC
:1050E000E08808330EAA6946A2DF00283BD1209849
:1050F0008068002836D0209902950395049505957F
:105100000695079568460895027A0220024368468C
:10511000027201228271684B83800095CB7B037001
:105120000B7C43708078F9231840F723801C1840CB
:10513000EF23184043085B006846837001A80B907A
:1051400068460D950E950F950C908286C586028750
:1051500088680F902346E08810330BAA02A9A2DFCB
:10516000002800D1002021B0F0BDF3B58BB00B9822
:10517000524A008C904262D005AA0B980A9242795A
:105180000026002A00D004262222135C0222002BD3
:1051900000D01643CAB2FF2907D901231E436B462C
:1051A000090A5A759975032502E069464A75022570
:1051B00004464034A189002901D01022164300275B
:1051C000002919DDA91C142909D9A189C91B4A0084
:1051D000790009182430243102F0E6FC0CE00A9B27
:1051E0007A0012185B19928C1A70120A5A70CDB29A
:1051F000A1897F1CB942E5DCA0896946C01BA0815A
:105200000A9806700D82002001900B990090029080
:1052100003900A8969460A8001228A70888004A85E
:10522000029005A803900B98008CA6DF002804D1FB
:105230006946098AA94200D00C200DB0F0BD0820B3
:105240000DB0F0BD70B5054604464035A8890E4640
:10525000142807D12622A118881E02F0A5FCA889CF
:10526000401EA88180B241000919401CA8818E848B
:1052700070BD40308089142801D000207047012083
:105280007047028C0D4B9A4202D141710020704749
:105290000820704720308170704703B482B001212C
:1052A0006A461180008A03AB0021A4DF04B0704776
:1052B0000D180000372A0000382A0000FFFF000008
:1052C00038B58349834A488890420FD04A78824C47
:1052D000521CD2B24A70237B934208D37F4975DFB8
:1052E000002803D0A169002900D0884738BD0025D7
:1052F0004D70217C002907D03B2176DF002803D0A8
:10530000A169002900D0884761690029EED068466C
:105310000095884738BD70B53CC86F493CC184686A
:10532000436802688C604B60694C00250A602570F8
:105330001038006800280CD00188218141886181E3
:105340008188A181C188E18164487ADF00280DD17C
:1053500003E062487BDF002808D10020C043608062
:1053600065705F4A00215F4800F0DCFB70BD10B53E
:105370005748406800F069FC10BDF8B5564C0788E6
:105380000026534A811CE389102F16D015466D68FC
:10539000112F22D0122F37D0502F1DD1C188801D40
:1053A000994219D1018B022916D1C17E827E080251
:1053B0001043C007C00F0DD11CE080885080888941
:1053C0001082C8895082088A9082488AD08256709A
:1053D000002B01D100F04BF8F8BD0020C0435080F5
:1053E0005670284600F031FC0028F5D0A16900294C
:1053F00008D1F8BD284600F028FC0028F9D0A169A2
:105400000029F6D08847F8BD88881082C888508265
:10541000088990824889D08200F029F8F8BDF8B553
:105420002B4D01882981418869818188A981C188A2
:10543000E9812A487ADF060010D12B4801244188EF
:105440000838028891420BD34088814208D822480C
:105450004169002902D06846009488473046F8BD6B
:105460002C701E49688875DF06466C70F6E7F8B543
:105470001D48194D4288083803880026144C696974
:105480009A420AD34088824207D80120002902D0DC
:105490000090684688472670F8BD2078002805D01F
:1054A0000029F8D0684600968847F4E7607800281D
:1054B0000BD0A9680022606800F05DFB0028EAD0EC
:1054C000A9690029E7D08847E5E76968F2E70000A5
:1054D0007C200020FFFF0000AC240020842000205E
:1054E000C1520100802000208C200020FFB585B033
:1054F00005460220864608980E9C0291009020786E
:105500000190002728883E4600283FDD6868B100EA
:105510004018028869460A8240884882002203A90E
:1055200004A864DF00285CD16846017B714520D166
:10553000002F01D0002200E00222207889184118B3
:105540001F294DD8002F07D1401CC0B2411C009B21
:10555000029A21701A540127217800980A1803A989
:1055600004A864DF00283CD169462078097B4018F4
:1055700020702888761CB042C8DC002F06D0217825
:105580000198019A081A0099401E885407980290C1
:105590001020864608980E9C0090207801900027E5
:1055A00028883E46002842DD6868B100401802881D
:1055B00069460A8240884882002203A904A864DF61
:1055C00000280ED16846017B714523D1002F01D000
:1055D000002200E002222078891841181F2902D9F0
:1055E0000C2009B0F0BD002F07D1401CC1B2481CEF
:1055F000009B029A20705A540127217800980A18BB
:1056000003A904A864DF0028EBD169462078097B50
:10561000401820702888761CB042C5DC002F06D0C8
:1056200021780198019A081A0099401E8854002098
:1056300009B0F0BDF7B582B00026054616700068C7
:105640001446002823D02879039F801C1F287DD86A
:105650001D2069460880B81C7DDF002877D12868A6
:10566000022805D1684600881D2801D8092107E0D5
:1056700028790821002801D01D2801D96846008812
:10568000421C3A7079702178801C08182070687963
:1056900000281CD02078039F001D1F2856D868467C
:1056A00079DF002853D121780322481C20707A54D6
:1056B00021781922481C20707A5468460188207885
:1056C000C0190170090A41702078801C2070298956
:1056D00000291ED001208446EA680398002A7DD064
:1056E000227853189B1C1F2B30D81346521C227053
:1056F000491CC15422786746511C21708754237875
:105700002A891818E96802F0EBF92078297A4018FC
:1057100020702869002815D00021415622788C4637
:10572000D01C03991F2811D8501C022320708B54C1
:1057300022780A23501C20708B5420786346421C28
:1057400022700B54A88A00280CD001E075E075E0A7
:1057500028460094062202211430039BFFF7C6FE60
:1057600006006BD1A88B002809D028460094072298
:1057700003211C30039BFFF7B9FE06005ED1A88C05
:10578000002809D028460094152214212430039BB8
:10579000FFF7ACFE060051D1E86A002840D021781E
:1057A00084468E46891D03981F2946D861460B887A
:1057B000062B13D31922D201724F934201D9BB4257
:1057C0000CD161464988062908D3914201D9B942D2
:1057D00004D1BB4205D0B94203D000E080E08B4247
:1057E0007ED87146491C0523724621708354227865
:1057F0001223511C217083542278614609881218A3
:105800001170090A51702178891CCAB22270614650
:10581000498810180170090A41702078801C207096
:10582000286B002830D0009000792378801CC0B20B
:10583000811C5918039A1F2902D90C2005B0F0BD0C
:10584000591C2170401CD0542178FF23481C207023
:10585000535400980188207880180170090A41701B
:105860002078801CC0B2207000998B88002B0BD050
:10587000896800294CD080181A4602F031F9009846
:105880002178007908182070284620300190007E89
:1058900000283AD003990091696B00293BD000267B
:1058A000002831D90C20696B70430F1821783879A2
:1058B0004B1C009A2370C01C50542178009B481C3C
:1058C000162220705A54227800993888511808708E
:1058D000000A48702078801CC0B22070BA8800E0AE
:1058E00016E0002A0AD0B968002914D0009BC0181D
:1058F00002F0F6F820783979401820700198761C6B
:10590000007EF6B2B042CDD80026304605B0F0BDDC
:10591000072005B0F0BD072005B0F0BD70B50D46FD
:1059200092B000216A46117007241171002812D02C
:105930000189002905D0C168002902D009784907EA
:1059400002D4204612B070BD02A9FFF773FE0028F2
:10595000F8D102AE00E00026002D0BD028890028E7
:10596000EFD101AA0AA92846FFF764FE0028E9D171
:105970000AAA00E00022684603790178304672DF07
:1059800012B070BDFFFF00000A78027049784170C4
:105990000220704770B504460D46084602F07EF8B6
:1059A0002080656070BD0000F8B5FB4900200860EC
:1059B00048608860C860F94908604860F84EF4683B
:1059C000601C36D0F748002740683169401A05024C
:1059D0002D0A28204443706822189068A84215D8E0
:1059E00073692D1AC719546A002B0AD0116AD0693D
:1059F0009847002808D0FF21EBA25531FEF74AFC5A
:105A000002E0D169106A8847601CE2D1B178F07871
:105A1000814206D1401CC0B2F070022801D10020A2
:105A2000F0700006EC49800D0F500120EB49000595
:105A30000860F8BD10B500F0F6F910BDFFB581B0F3
:105A40000A9F1C4615460E46980768D1002C66D062
:105A50000120E34A41041160E24A01049160E24AF4
:105A60009160E24948602F20FEF77CFBCC4821463C
:105A70004761067044600020002E13D00A46283A81
:105A80001039F30703D02831906208702832730868
:105A900008D0282790627854106550315032087031
:105AA0005B1EF6D128214E433219BD4B032159709C
:105AB0009A601146107018315070957051602C46E4
:105AC000182674431072661850729572D66010745E
:105AD0005074A119957451610021C943D96098701F
:105AE000D8700121C24809050160C2480268C0247B
:105AF000120A120222430260BF480160A9490198BC
:105B00008860BE4A1068FF242402A0430324A40333
:105B10002043106048681861002005B0F0BD0720E0
:105B200005B0F0BD70B49E4D6C68002C12D0002AF8
:105B300013D0002811D02D780023002D07DD282652
:105B40005E43A659002E0BD05B1CAB42F7DB70BC4A
:105B50000420704770BC0820704770BC0720704755
:105B6000282501265D4366512C19E26161600360BE
:105B700070BC00207047F0B4894B5D68002D0CD0DC
:105B80001C78A04201D2052902D2F0BC0720704740
:105B9000282444432E59012E02D0F0BC082070471F
:105BA00064196468012C14D00026954D6C68E405D6
:105BB000E40D1ED0103C0ED527073F0F083FBF084D
:105BC000BF007D19ED69A407E40EE5402C06A40F83
:105BD0000BE00E46E9E7A5088A4FAD00ED192D68E8
:105BE000A407E40EE5402C06A40F012C26D0032CBC
:105BF00026D002248C469B68E100CC186378A778F5
:105C00001D465B1C9F4200D1002327789F4219D07C
:105C1000182167684D43791914D001250D6048603B
:105C20006048406888600E6160464A61C8606B49A0
:105C3000637028050860F0BC002070470024D9E795
:105C40000124D7E7F0BC04207047554A5168002969
:105C500009D01378984201D3072070472823434383
:105C6000C958012901D008207047F0B4644B596825
:105C70000424C905C90D00291CD010390CD50D0705
:105C80002D0F083DAD08AD00EB18DB698907C90E83
:105C9000CB401906890F09E08B085A4D9B005B1910
:105CA0001B688907C90ECB401906890F01291FD02F
:105CB00003291FD002219268C9008A18517895786B
:105CC0000B46491C8D4200D10021167800258E42DA
:105CD00012D0182756687B43F3180DD002241C609D
:105CE000586051703D49E00408602846F0BC704798
:105CF0000021E0E70121DEE72046F0BC704770B4E8
:105D0000274A5068002815D03D4B5868C105C90D79
:105D1000042000291FD010390FD50C07240F083C90
:105D2000A408A400E318DB698907C90ECB40190653
:105D3000890F0CE0082070BC70478B08314C9B0029
:105D40001B191B688907C90ECB401906890F012949
:105D50005AD003295AD002219268C9008A18517872
:105D600094780B46491C8C4200D100211578002400
:105D70008D42E0D0182655687343EB18DBD0032022
:105D80001860001F58605170012014490005086018
:105D9000204670BC704700004011014000110140D6
:105DA00094200020001501402E2E5C2E2E5C2E2EFD
:105DB0005C2E2E5C2E2E5C536F757263655C617079
:105DC000705F636F6D6D6F6E5C6170705F74696D35
:105DD00065722E6300000000AC20002000E200E0AD
:105DE00080E100E040130140001301400010014039
:105DF00080E200E014E400E000E100E010E400E0F4
:105E000000ED00E000E400E00021A5E70121A3E7A8
:105E1000E5494968016000207047401A0002000A05
:105E2000106000207047F0B5002095B0C043DF49F6
:105E300005900A690792C8680A908B78CC78A342CB
:105E400011D05B1CDBB28B70022B01D100238B7055
:105E50001B06D74C9B0DE35808939A181202120A9E
:105E60000A61012201E000220892D04910920F90AD
:105E7000497803914A1E0992D2B20492CB4A002972
:105E800093680B9352680C9260D014460E93049959
:105E9000CA000E9955182B78697899424ED018216E
:105EA00059436A685B1C5118AA78DBB29A4200D148
:105EB00000230A68022A02D0032A3CD131E04E684E
:105EC0002821714309198C46097E002933D00146E7
:105ED0000246471C21D0B14207D00A46282151432F
:105EE0000919496A4F1CF6D117E0002F15D08A42D4
:105EF00003D1282670430019406A282671430919E6
:105F00008F687243496A121951624A1C05D02822CF
:105F1000514309198A68D2198A60002162461176B4
:105F200009E0411C07D000212822504300190176C6
:105F3000406A421CF8D169789942B0D104994A1E4E
:105F4000D2B204920029A2D19849C86097480F990B
:105F5000C068884201D0012100E000210F91109912
:105F6000002926D00025079E089A401C1FD08F4983
:105F70002820CB680C9C584300198468944202D9AD
:105F8000A11A816013E0121B651900248460047655
:105F9000446ACC604169002907D077193F023F0A63
:105FA000C7600161059941620593641CDFD101203E
:105FB0000F90059810907D48099AC0680399D2B255
:105FC0000790069200296ED078490C9A09690891C9
:105FD0000B990E910699CB000E995C1881E01099EF
:105FE000491C06D0109F2821794389184B6A1093C9
:105FF0001EE0217818234B436568491CC9B2EB1891
:106000002170A578A94201D1002121705F68282163
:1060100079431D688918012D67D10D7E002D64D14B
:106020009D68CD60DD680D611D694D615B690B6226
:10603000CD68089B5F4EEB1A1B021B0AB34203D2CA
:106040000D695B198B600AE0089B5B1B1B020D69E5
:106050001B0A9D4201D9EB1A00E000238B6000234C
:10606000CB600B6101230B769B1E4B622821794389
:1060700089188C46411C14D061468B682821414305
:10608000891889688B420FD828214143891889686B
:10609000CB1A2821414389188B60614648623846F3
:1060A0001FE038461DE02DE00146099002E009910D
:1060B000696A9B1B4D1C0BD028254D43AD18AE685B
:1060C0009E42F4D328264E43B618B668F61AAE6040
:1060D0006546AB6063465962099B28214B4399187A
:1060E0004F621099491C00D079E721786378994272
:1060F000FAD106994B1EDBB20693002900D069E75E
:106100002A49C860294D0799E868884202D10F9949
:10611000002938D00A9A2849284B441C35D0282415
:1061200060430C9C001986681F4844682F69521C04
:10613000E01B05022D0AED1C002A0DD159602048F4
:10614000416001211F4A480410601F4A10601F4827
:1061500001602F20FEF706F8B54200D23546E81957
:1061600000021B49000A08600F494968001B091B0F
:106170000902090A0002000AC91C814203D9012050
:1061800014494004086015B0F0BD0120124C4204CF
:10619000226099600A4A91600C4948602F20FDF7FF
:1061A000E1FF15B0F0BD0000001501409420002073
:1061B000AC200020FFFF7F000000010040130140E1
:1061C0000013014080E200E000E100E00010014027
:1061D0004015014000E200E080E100E010B5084613
:1061E0001146FEF75FF810BDF8B53F4C2078002847
:1061F00037D02069002807D00026E068002805D0A5
:106200000025002E04D013E00126F6E70125F8E76B
:1062100068464EDF052806D0002806D033A2692143
:10622000FEF738F804E0012602E02169009888476B
:10623000002D12D1608869460880A06860DF0528BB
:1062400006D0002806D029A28021FEF723F804E01A
:10625000012502E0E168A0688847002ED8D0002D13
:10626000CFD0F8BD002901D10720704730B48C078A
:1062700002D0072030BC70471B4CA16062802949C6
:10628000636010DF0028F5D101202070162023DF85
:1062900030BC704711DF002801D0012100E000214F
:1062A000114A11707047002803D00F49C8600020C0
:1062B00070470E207047002803D00B49086100206A
:1062C00070470E20704710B507484068002808D076
:1062D0008047002804D0FF2104A23331FDF7DAFF04
:1062E00010BDFFF781FF10BDB42000202E2E5C2EC4
:1062F0002E5C2E2E5C2E2E5C2E2E5C536F757263E0
:10630000655C73645F636F6D6D6F6E5C736F6674F5
:106310006465766963655F68616E646C65722E633F
:1063200000000000DD61010030B5FF4C054620791A
:1063300083B00A2802D3042003B030BD002805D161
:1063400000221146104601F02BF9A0816A462179FE
:10635000F64800F0EFFF0028EED104234C22294636
:10636000684601F011F80028E6D1F14A4C21284690
:1063700001F016F9EF49A08142182079EE4980001A
:106380000A50411800230422684600F0FDFF00284F
:10639000D2D12079401C2071002003B030BDE24AE8
:1063A00000219170D1705378002B25DDF0B4682066
:1063B000E24C48430019447A64070AD5D478E04D8A
:1063C0000778E600AF5507461E377519641C6F60E5
:1063D000D4704224245C022C09D094780778D94DDB
:1063E000E600AF5575194230641C68609470491C12
:1063F0009942DCDBF0BC70477047F0B5CA4F0446E9
:106400003878D14D83B0002802D1A9680820884788
:106410002088CA4ECD4B14287ED019DC10282ED0EF
:1064200011287AD0132811D1207AC0070ED0B8795C
:1064300002210843B8711868401C07D00020C449E5
:10644000586648618861C8610862486203B0F0BD5F
:1064500017286ED0BF4918286CD05228F6D118687A
:10646000401C04D0B879C20701D0800763D5002250
:1064700011467889A9DF002863D103B0F0BDAA488E
:10648000A18841810020B14FC04338600722A11D7F
:10649000B14801F025FB00207866607BC10713D06E
:1064A0004008072804D2C100A5484056072803DB4E
:1064B000A968032088471EE06821484381196822A3
:1064C000A248FDF75FFE16E097490024887800286F
:1064D00011DD9C4FA1480090E000C01940680622E1
:1064E000401C009901F0ACFA00281BD08E48641CB7
:1064F00080788442F0DB95480168491CBDD08A4A07
:106500000021D171117269680029B6D00122009270
:1065100002786B461A7101E0C9E006E0C08FD880AE
:1065200068464FE0E0003856C6E70020B87103B077
:10653000F0BD11E01CE1586E002803D0142802D9E8
:106540000320A4E0002182B27889A9DF002850D17D
:106550000120387203B0F0BDA079A41D0028F9D144
:10656000B879C007F6D01868401C2ED00120F87109
:10657000322221461F46181D01F0B2FAE088F88742
:10658000386868214843801901F054FB6821386855
:106590000A46484380196D49FDF7F4FD6B48FFF743
:1065A000C3FE042877D0002801D0A968884769680D
:1065B0000029CFD00320009038786A461071F88FF8
:1065C000D0806846884703B0F0BD574AE1885778C5
:1065D0000020002F11DD682242439219D28F8A4297
:1065E00008D168214843811968225848FDF7CAFD3F
:1065F0000F204CE0401CB842EDDB0094072F01D384
:10660000042044E0214632221C46181D01F068FA9D
:1066100000984549C088E0870020276060666820B0
:1066200078437F1C4F70801968224849FDF7AAFD06
:10663000FFF7B5FE01203C490022C8713A481146D7
:106640004089A9DF002822D14048FFF76DFE0428C9
:1066500002D000281BD10BE06968002917D0042064
:10666000009020786A461071E08FD0806846884795
:1066700069680029A7D00020009020786A46107130
:10668000E08FD0806846884703B0F0BD03E0A9687A
:10669000884703B0F0BD6968002986D004200090C7
:1066A00038786A461071F88FD08068467EE77A782D
:1066B000E1890020002A1ADD682343439B19DB8F00
:1066C0008B4211D168214843811968221F48FDF788
:1066D00059FD0120F87100222149788981DF0400E9
:1066E000D7D0A96888471DE0401C9042E4DB1D48D4
:1066F000E18801802189418061898180A189C180EF
:10670000E1890181218A418100221146788981DF56
:10671000002801D0A9688847002211467889A9DF9E
:106720000400B6D020461FE0C8200020D82000205A
:10673000D420002000002453BC2800207425002011
:10674000842800204C280020002500200C25002053
:10675000482500205C2500204E2500204F250020E4
:106760001625002042250020A968884703B0F0BD07
:10677000A0790207120F0009012A0FD0022AF5D1D1
:106780000028F3D0B87901242043B871586E1E4612
:10679000002807D0142806D9032009E00128F1D8E1
:1067A00003B0F0BD002182B27889A9DF002802D0B1
:1067B000A968884700E03C7269680029F0D002208F
:1067C000009030786A461071F08FD0806846884714
:1067D00003B0F0BDF0B5F84F83B0387800287DD015
:1067E000F648F74C0068401C31D0142069460880F8
:1067F0006A46F4497889AADF002870D1EF486946D3
:106800000568C56409884166002D69DB7878854292
:1068100066DAF879002806D06820684300194C220F
:10682000E649FDF7AFFC387A00280ED06820E6492B
:10683000454328190A4610326CCA4C306CC04B6A6A
:106840000A6A896A436002608160FFF7A8FD00223E
:106850001146104600F0A4FE6946088078780025AD
:1068600000280CDD682068430A4600194C2100F01E
:1068700097FE6946088078786D1C8542F2DB0888AF
:10688000B989884215D00A21D04800F0E6FD0028D9
:1068900044D138710546787800280ADD68206843BD
:1068A0000019FFF741FD002838D178786D1C85422A
:1068B000F4DB00221146104600F072FE69460880A3
:1068C00078780025002811DD6820684300190A4601
:1068D0001C214C3000F064FE694602E020E01DE01F
:1068E00021E0088078786D1C8542EDDB0888F98905
:1068F00088424DD00A21B64800F0AFFD00280DD1E6
:10690000787105467878002842DD2846682148439A
:10691000061978794C360A2808D3042003B0F0BD54
:10692000082003B0F0BD032003B0F0BD002805D15E
:1069300000221146104600F033FEF8816A4679794C
:10694000A34800F0F7FC0028EED104231C223146B6
:10695000684600F019FD0028E6D19E4A1C21304609
:1069600000F01EFE9C49F8814218787900238100CE
:106970009A48425009180422684600F005FD002894
:10698000D2D178796D1C401C787178788542BCDB57
:106990000020C0437881014688480160C16400211D
:1069A0004166F9713972084603B0F0BDF8B5834C01
:1069B000606E002801D00820F8BD142069460880C8
:1069C0007D486A467F494089AADF0028F4D12068C3
:1069D00068227B4B4243D2186946E06409882C3B0D
:1069E000616617464C37DE699D695C6971C7186A34
:1069F0005B6A13665166D065794800F060FBF8BDAC
:106A00006D480178002901D10820704710B5002198
:106A10004170017141710A216C4800F01EFD00288F
:106A200003D10A216A4800F018FD10BD10B50B46CD
:106A3000411C14D060494978884210DA002B0ED0EE
:106A4000682148435E4941184220405C022806D034
:106A500007221846423101F043F8002010BD0720FC
:106A600010BDF1B55448C578002D46D0002407214B
:106A7000284601F0E1F800235A488C4601290BD43E
:106A800062465949521EE6007618A70076685B1CDC
:106A9000641CC6519342F6DD6146AC452DDA524A7C
:106AA000E3009B18A6005B688351641CE3009B18FD
:106AB000A6005B688351641CE3009B18A6005B681A
:106AC0008351641CE3009B18A6005B688351641C1F
:106AD000E3009B18A6005B688351641CE3009B18CD
:106AE000A6005B688351641CE3009B18A6005B68EA
:106AF000C91D641C8351A942D2DB2F488678002E21
:106B000046D000240721304601F096F8002337488C
:106B10008C4601290BD46246521E354FE100C9193B
:106B20004F68A1005B1C641C47509342F5DD614631
:106B3000B4452DDA2E4AE3009B18A7005B68C351C9
:106B4000641CE3009B18A7005B68C351641CE3004E
:106B50009B18A7005B68C351641CE3009B18A70047
:106B60005B68C351641CE3009B18A7005B68C351BA
:106B7000641CE3009B18A7005B68C351641CE3001E
:106B80009B18A7005B68C91D641CC351B142D2DBCE
:106B90000098002E067101D0144900E000210098F1
:106BA000002D01600098057301D00E4900E000211E
:106BB000009881600020F8BDC82000200C2500202E
:106BC000742500205C25002048250020D8200020C6
:106BD000E0200020D620002000002453D8280020E8
:106BE00058250020E424002084280020C824002008
:106BF0004C280020100002D0FE49896808477047E1
:106C0000F0B50446806899B0002836D05021684617
:106C100081800A21C180F8480090F849684600F058
:106C200024FB00282AD1202069468880F449684640
:106C300000F01BFB002821D1F248A368626821689C
:106C40000364C26381636821EF4800F0F3FF00270B
:106C5000ED48FF430760ED48002547814570057109
:106C600045718571E348807800281ED00A21E348E9
:106C700000F0F3FB002803D006E0072019B0F0BDB8
:106C80000A21DF4800F0E9FB0028F7D1DF48E04A9D
:106C90004570E049E048072317600D6007606830E1
:106CA000683168325B1EF7D1CBE0D84C0B262079D7
:106CB00002AD002805D100221146104600F070FCFC
:106CC000A08116AA2179CD4800F034FB002819D103
:106CD0000023042216A915A800F08CFB002811D16E
:106CE0001598CE49020C8A4209D187B204234C225E
:106CF00016A9284600F07EFB002803D10BE0401CBB
:106D00002ED0304605282BD00028B7D16078029DC0
:106D100085420CDC0EE0C24A4C21284600F040FCC3
:106D2000A081B84203D12079401C2071EEE73046A3
:106D300019B0F0BD682029464143B5484C220F18D0
:106D400002A93846FDF71EFA6078854205D1002178
:106D50007966491E401CF9646070C0B20728A6D34A
:106D600060780025002853DD607902AE002805D147
:106D700000221146104600F013FCE0810AAA617956
:106D80009F4800F0D7FA002819D1002304220AA94D
:106D900009A800F02FFB002811D109989F4A010C87
:106DA000914209D187B204231C220AA9304600F07F
:106DB00021FB002803D10BE0401C29D00B20052823
:106DC00026D00028B4D16078029981420CDC0EE014
:106DD000944A1C21304600F0E3FBE081B84203D125
:106DE0006079401C6071EEE70B2019B0F0BD68229D
:106DF0005143874A6D1C891802AACCCA4C31CCC1B8
:106E0000089E079B069A8E604B600A608542ABDB4A
:106E1000607807210B1A002B11DD682148437C495B
:106E2000002540180146024664314C306C1E146047
:106E30000D6004606830683168325B1EF7D1FFF77F
:106E4000AEFA724801210170002019B0F0BDF3B50F
:106E50006E48B9B00278002A09D000290AD00A8801
:106E600040780090824208D20C203BB0F0BD082050
:106E70003BB0F0BD0E203BB0F0BD08803998002833
:106E8000F9D0009F7F1E002F2FDD861E0098012164
:106E90005D4D654CC007C907C84204D068342088DE
:106EA00070806835B61C6822A91804A8FDF76AF935
:106EB0006820005B01907F1017D0D03568222946EA
:106EC0001EA8FDF75FF9D0342088029001987080E9
:106ED0006822A91804A8FDF755F96820005B019005
:106EE0000298B080361D7F1EE7D10098401E07D45F
:106EF0006821474A4143891842003998C98F815215
:106F000000203BB0F0BDF0B5404B83B019780029AC
:106F100044D05A780021002A47D968243C4D4C437C
:106F20006419E48F84423CD148B2411C3DD0C1B2C7
:106F3000531E99421FDA682359432B46CD182C461D
:106F40002E4668344C36101A401EC7B268222146BD
:106F5000A01AFDF717F92868401E28603168084616
:106F6000491C01D0401E30606834683568367F1E89
:106F70003F063F0EEAD1254C68216078244E4843F5
:106F80008019683800F056FE60780A21401E607053
:106F90001A4800F062FA00280AD00DE0082003B079
:106FA000F0BD491CC9B29142B7D3052003B0F0BD72
:106FB0000A21134800F051FA0028F7D120716071BE
:106FC0000546607800280BD9682068438019FFF7D0
:106FD000ABF90028EAD16D1C6078EDB28542F3D39D
:106FE00000250006000E59D0682068438719607993
:106FF0004C371BE000250020F56B0100D820002055
:10700000E0200020C82400200C250020C8200020FB
:1070100074250020D8250020C0250020245300001E
:10702000D4200020D62000204A2500200A2802D3A0
:10703000042003B0F0BD002805D1002211461046FF
:1070400000F0AEFAE0816A4661793A4800F072F9E0
:107050000028EED104231C223946684600F094F93A
:107060000028E6D1344A1C21384600F099FA334909
:10707000E08142186079324980000A5041180023AB
:107080000422684600F080F90028D2D160796D1C96
:10709000401C60716078EDB28542A5D3FFF77FF99F
:1070A000002003B0F0BD27490A78002A05D089796D
:1070B000C907C90F0170002070470820704730B51C
:1070C000204C0546607983B00A2802D3042003B01F
:1070D00030BD002805D100221146104600F060FAAC
:1070E000E0816A466179134800F024F90028EED166
:1070F00004231C222946684600F046F90028E6D100
:107100000D4A1C21284600F04BFA0C49E081421838
:1071100060790B4980000A50411800230422684618
:1071200000F032F90028D2D16079401C6071002053
:1071300003B030BDE0200020D62000200000245302
:10714000D8280020C820002038B50246FE48142365
:107150000178FE4C59430818C36801791B01E458B3
:10716000042905D0C388009343690C30A04738BD7B
:107170000023F8E770B5F44C0146A2780020012AFC
:1071800008D10025A570022905D0032902D10D20C0
:10719000FFF7DAFF70BD21781422514309190A79EB
:1071A000EB4E091D042A03D14988B288914201D8C7
:1071B000FFF7CAFF2078142148430019C188B2881C
:1071C00091420DD80571C580056102214561C160FC
:1071D0000581B5806078401E60702078401C20706A
:1071E00060780028D6D000F05FF90400D2D0112CCE
:1071F00002D0FFF7A9FF2046FFF7A6FF70BD70B5CC
:107200000024D34DD04AAC80147054709470204642
:1072100002231421414389180C71CC800C614C610C
:10722000CB60401C0C811E28F3D3CA486C80416996
:107230000604491C05D03169406989B200F0FCFCA4
:1072400000E070693169801E89B24843A860BF4878
:10725000AC8004600481848144810461048384835C
:10726000448301202870002070BDF8B50446B8485A
:107270000E46007800281ED0002C1ED0002E1CD0F8
:107280002068002819D001252D07A788286980B219
:1072900087421FD8102F1DD3E0880090002819D0F6
:1072A000AC484169491C0AD02969406989B200F09B
:1072B000C3FC014604E00820F8BD0E20F8BD696952
:1072C0002869A34A80B24143009B90687B431B1806
:1072D000994201D20720F8BD5188022919D03160A6
:1072E00070609A4B0E01F218506027689F51A38876
:1072F0001381E3885381A388E48800266343761CC6
:107300002C69B6B2A4B29C4205D22C69A4B21B1B54
:1073100002E00420F8BD00232C69A4B220182C69D7
:10732000A4B29C42EBD98A4B491C98609681598043
:107330000020F8BD70B4864B1B78002B19D00028B4
:107340001AD0002A18D00368022B0FD27F4C1E01DE
:10735000A559002D0AD04568301904896143691880
:107360004589406865432818884208D870BC0720C2
:10737000704770BC0820704770BC0E2070471360C7
:10738000516070BC00207047F8B5714C2478002C17
:107390001DD000291DD000281BD00468022C14D257
:1073A00025016A4C6659002E0FD02D196E892C8943
:1073B0006D68664375194668B54206D9002A04D03F
:1073C000944202D3D518A54205D90720F8BD08205C
:1073D000F8BD0E20F8BD8C0702D1CC18A40701D04F
:1073E0001020F8BD009313460A460146022000F023
:1073F00093F8F8BD70B5564C2478002C1DD00029A8
:107400001DD000281BD00C68022C14D225014F4C33
:107410006659002E0FD02D196E892C896D68664330
:10742000496875198D4206D9002A04D0944202D3C6
:10743000D518A54205D9072070BD082070BD0E20C3
:1074400070BD840702D1C418A40701D0102070BDFC
:10745000C91800F045FB002070BD08B53C4909780B
:10746000002914D0002814D0016802290DD2374A0F
:1074700009015358002B08D089184A890B895A43AF
:107480004B68D21843689A4205D8072008BD0820E7
:1074900008BD0E2008BD8B8900210A4600910146D7
:1074A000042000F039F808BD70B5274E142230785A
:1074B000274C50438219137910690F21A588121D9A
:1074C000042B02D0022B0DD024E001210907096909
:1074D00089B200F0B1FB401950DF01001AD1A08839
:1074E000401C14E011699388528840194919521BB5
:1074F00001251818AD02AA4202D2920851DF02E01B
:10750000FF22013251DF010004D1A0884019A08080
:107510000120B070084670BDF8B50B4C0A4D064608
:10752000A47804206D78069F002C02D1064C002D13
:1075300022D0054C1E2D1ED020784019C0B21E2826
:1075400001D31E38C0B207E0F4280020502B0020E1
:10755000E82000200010001014256843001906716F
:1075600042614A6809680261C160C380078160782E
:10757000401C60700020F8BD002020702671626100
:10758000086849682161E060E3802781012060701C
:10759000FFF78AFF002801D01128ECD10020F8BDA8
:1075A0000346002A15D01088002911D0020A0002D3
:1075B00002431878491E50400206120F4240100341
:1075C000504082B21006C00C50405B1C0029EDD127
:1075D00070470148E8E70000FFFF0000F8B5614E82
:1075E00004466946707800F006FA00282CD100990C
:1075F000F0680A460140B06890430843044023D035
:107600003078002500281FD901270C2071686843B5
:107610004218107839468140214210D09268002AE1
:107620000DD07369002B09D00146104698470028F9
:1076300005D04DA22921FCF72DFE00E090476D1CDE
:107640003078EDB28542E0D3F8BD70B5454D0446C3
:107650000E46A869FEF7F9FA002805D13443224600
:107660002969A869FEF787FA70BD052A01D20720AB
:107670007047F8B53B4C6060217063612261002265
:10768000E2604B1EA260DCB2002920D0424F1346BC
:107690000C2161430E18317875688900AD00C91955
:1076A0000D607578002D01D0012100E000213678B1
:1076B000B1400B43002D19D00021B1400A432146AF
:1076C000641EE4B20029E3D12648C36082602548E5
:1076D000324B8268C168324800F0DCF8002804D1DF
:1076E000304A00213048FEF71DFAF8BD0121E4E7D9
:1076F0001C484168002901D10820704710B5407826
:1077000000F003F910BD10B5164C6068002808D0D1
:10771000607800F03FF9002802D1A069FEF795FAE1
:1077200010BD082010BDF8B50E4C064660680D4629
:10773000002815D06946607800F05DF900280AD16C
:1077400001220098B240024206D1A068104000D049
:10775000012028700020F8BDE0681040F8D1F8E75B
:107760000820F8BDF42000202E2E5C2E2E5C2E2E3C
:107770005C2E2E5C2E2E5C536F757263655C61709F
:10778000705F636F6D6D6F6E5C6170705F6275745A
:10779000746F6E2E63000000000700504B760100EE
:1077A000F5200020DD7501000C210020F8B59C4873
:1077B000006900909B490020C86304469A484178BC
:1077C000002940D903273F04974914204A686043A1
:1077D000821801208968A04008422ED0D068C34397
:1077E0000098434010680340002001268640334241
:1077F00012D0D568354203D101214904354301E057
:107800003946B543D560894D860075192E68BE434B
:107810002E602E680E432E60401C2028E5D3009871
:1078200091681D4685432940009D50681D402840B1
:1078300003460B4301D0126990477B48641C407893
:10784000E4B28442C0D3F8BD002901D08A0701D038
:107850000720704710B5744A0B4651601070002124
:107860005170916014214143184600F0E3F9002063
:107870006F49C04388606F48402101606E4A1068BC
:10788000FF231B0498430B04184310606B480160EE
:10789000002010BDF0B4844663484568002D08D030
:1078A000002B09D044780678B44208D3F0BC0420F9
:1078B0007047F0BC08207047F0BC072070470F46A7
:1078C000142617436643AF5176193361B260716075
:1078D00061460C70611C4170142100204C43012250
:1078E000524B03273F042E59114681400E4206D0C9
:1078F0008100C9180E68BE430E600E680E60401C01
:107900002028F0D3F0BC00207047F0B4464C6268E9
:10791000002A05D06178884205D3F0BC0720704763
:10792000F0BC082070473F490025CD633C490969F8
:107930008C46A168002903D101233D4EDB0773600B
:10794000012686400E43142148438118A660CD606D
:10795000032500212D048618012413588C4023424E
:1079600012D06346234201D02B4604E00123F7687E
:107970005B042743F7602D4C8F003C192768AF4309
:10798000276027681F432760491C2029E4D3F0BCE7
:1079900000207047F0B4244A5568002D05D0517876
:1079A000884205D3F0BC07207047F0BC0820704720
:1079B000142200214243012403273F04AE582346EA
:1079C0008B401E4207D0194E8B009B191E68BE4388
:1079D0001E601E681E60491C2029EFD31249844096
:1079E0008868A043886003D101201149C0078860DE
:1079F000F0BC002070470C4B5A68002A04D05B781A
:107A0000984203D307207047082070471423584337
:107A10008018034A12690068024000200A6070471B
:107A20000005005040610040102100200007005078
:107A30000063004080E200E004E400E000E100E0D8
:107A4000034610B50B439B070FD1042A0DD308C87A
:107A500010C9121FA342F8D018BA21BA884201D91E
:107A6000012010BD0020C04310BD002A03D0D30761
:107A700003D0521C07E0002010BD03780C78401C96
:107A8000491C1B1B07D103780C78401C491C1B1B8D
:107A900001D1921EF1D1184610BD000030B5441C32
:107AA00003E00178401C00290DD08107F9D10B4B70
:107AB000DD0104C8D11A91432940FAD0001B0A06FF
:107AC00003D0C01E30BD001B30BD0A0401D0801E93
:107AD00030BD0902FCD0401E30BD00000101010193
:107AE000F8B5042A2CD3830712D00B78491C0370F5
:107AF000401C521E83070BD00B78491C0370401C9E
:107B0000521E830704D00B78491C0370401C521E80
:107B10008B079B0F05D0C91ADF002023DE1B08C985
:107B20000AE0FCF72FFBF8BD1D4608C9FD401C46C6
:107B3000B4402C4310C0121F042AF5D2F308C91A0E
:107B4000521EF0D40B78491C0370401C521EEAD41C
:107B50000B78491C0370401C012AE4D40978017099
:107B6000F8BD431A70B593421BD28918801804E0FF
:107B7000491E401E0B78521E03709307F8D106E091
:107B80001039103878C9103978C01038103A102AD6
:107B9000F6D203E0091F001F0B680360121FF9D51E
:107BA00070BDFCF7EFFA70BDF8B506461446084301
:107BB000800707D0751AA54219D20819102D13D2C3
:107BC000311907E03046FFF7CCFFF8BD401E491ED3
:107BD00002780A70641EF9D2F8BD471B2A4639465E
:107BE000FFF77EFF641B3846A542F6D3011B2246F1
:107BF0003046FFF775FFF8BD01E004C0091F0429F6
:107C0000FBD28B0701D50280801CC90700D002700F
:107C1000704700290BD0C30702D00270401C491ED8
:107C2000022904D3830702D50280801C891EE3E762
:107C30000022EEE70022DFE7002203098B4273D324
:107C4000030A8B4258D3030B8B423CD3030C8B4269
:107C500021D312E003460B437FD4002243088B421A
:107C600074D303098B425FD3030A8B4244D3030BC3
:107C70008B4228D3030C8B420DD3FF22090212BA88
:107C8000030C8B4202D31212090265D0030B8B4204
:107C900019D300E0090AC30B8B4201D3CB03C01AEE
:107CA0005241830B8B4201D38B03C01A5241430BC9
:107CB0008B4201D34B03C01A5241030B8B4201D3B9
:107CC0000B03C01A5241C30A8B4201D3CB02C01A24
:107CD0005241830A8B4201D38B02C01A5241430A9C
:107CE0008B4201D34B02C01A5241030A8B4201D38B
:107CF0000B02C01A5241CDD2C3098B4201D3CB0132
:107D0000C01A524183098B4201D38B01C01A5241E0
:107D100043098B4201D34B01C01A524103098B42E4
:107D200001D30B01C01A5241C3088B4201D3CB00CF
:107D3000C01A524183088B4201D38B00C01A5241B2
:107D400043088B4201D34B00C01A5241411A00D262
:107D500001465241104670475DE0CA0F00D04942CB
:107D6000031000D34042534000229C4603098B423B
:107D70002DD3030A8B4212D3FC22890112BA030AC3
:107D80008B420CD3890192118B4208D38901921145
:107D90008B4204D389013AD0921100E08909C309CA
:107DA0008B4201D3CB01C01A524183098B4201D3CC
:107DB0008B01C01A524143098B4201D34B01C01AB7
:107DC000524103098B4201D30B01C01A5241C3082F
:107DD0008B4201D3CB00C01A524183088B4201D39E
:107DE0008B00C01A5241D9D243088B4201D34B00B9
:107DF000C01A5241411A00D20146634652415B10FB
:107E0000104601D34042002B00D5494270476346DB
:107E10005B1000D3404201B50020C046C04602BD01
:107E2000704770477047754600F022F8AE4605006F
:107E300069465346C008C000854618B020B5FCF717
:107E4000CDF960BC00274908B6460026C0C5C0C5AC
:107E5000C0C5C0C5C0C5C0C5C0C5C0C5403D49003E
:107E60008D4670470446C046C0462046FCF773F96D
:107E700000487047702B002001491820ABBEFEE778
:107E800026000200704700000D1801000F180100C5
:107E90000A180100B47E0100002000201C0100002F
:107EA00004410100D07F01001C210020B41A000011
:107EB000204101000024F400FFFF0000000000004A
:107EC00000000000000000000000000010000000A2
:107ED000030000003943010011000000030000000E
:107EE0003943010000000000000000000000000015
:107EF0000000000000000000000000000000000082
:107F00000000000000000000000000000000000071
:107F10000000000000000000000000000000000061
:107F20000000000000000000000000000000000051
:107F30000000000000000000000000000000000041
:107F40000000000000000000000000000000000031
:107F50000000000000000000000000000000000021
:107F60000000000000000000000000000000000011
:107F70000000000000000000000000000000000001
:107F800000000000000000000000000000000000F1
:107F900000000000000000000000000000000000E1
:107FA00000000000000000000000000000000000D1
:107FB00000000000000000000000000000000000C1
:107FC00000000000000000000000000000000000B1
:04000005000140C1F5
:00000001FF
