:020000040001F9
:10800000E0310020F58001000781010009810100B5
:108010000000000000000000000000000000000060
:108020000000000000000000000000000B810100C3
:1080300000000000000000000D8101000F81010020
:1080400011810100118101001181010011810100E4
:108050001181010000000000118101001181010067
:108060001181010011810100698A01001181010063
:1080700011810100118101001181010011810100B4
:1080800011810100118101001181010011810100A4
:108090001181010011810100858C01001181010015
:1080A00011810100118101000000000000000000AA
:1080B00000000000000000000000000000000000C0
:1080C0000348854602F0B2F800480047AD8301003E
:1080D000E0310020401E00BF00BF00BF00BF00BF56
:1080E00000BF00BF00BF00BF00BF00BF00BFF1D195
:1080F00070470000074802680F210A4302600648E3
:10810000804706480047FEE7FEE7FEE7FEE7FEE79A
:10811000FEE7000024050040C5810100C180010088
:1081200032483349086070473248008CC0B2012899
:1081300012D13048808C0007000F00280CD12D4848
:10814000806AF0210840402806D12A48C06A0840C9
:10815000002801D1012070470020FCE72548008C51
:10816000C0B201282CD12348808C0007000F0028C2
:1081700026D12048806AF0210840002806D11D48F9
:10818000C06A0840002801D1012070471948806A60
:10819000F0210840102806D11648C06A084000287F
:1081A00001D10120F1E71348806AF021084030280E
:1081B00006D11048C06A0840002801D10120E4E738
:1081C0000020E2E710B5FFF7C9FF002805D00A48F4
:1081D0000A494860C8130A498861FFF7A5FF0028CB
:1081E00002D001200749886010BD00000024F4007F
:1081F00000280020C00F00F0DFFF07C0000500408E
:10820000006C00400006004004460D46164623461A
:108210002A46314670A002F07DF80F2001218140EE
:10822000764A916000BF00BFBFF34F8F7448754915
:10823000C860BFF34F8F00BF00BFFEE704460D4686
:108240002A4621467048FFF7DFFFF7B584B00E4697
:108250003078062802D0072833D11FE07568A87946
:1082600069792A79009201910290EB78AA7869786D
:10827000664802F04FF860A002F04CF8049800F055
:108280003AFB044600BF2746002F05D000BF60A27E
:1082900084213846FFF7B8FF00BF13E05FA002F06B
:1082A00039F8049800F059FB044600BF2546002D1C
:1082B00005D000BF56A28C212846FFF7A5FF00BFBE
:1082C00000E000BF00BF07B0F0BD10B5044659A0E4
:1082D00002F020F8204601F0BEF8204600F08AFAAD
:1082E00010BD70B500BF002348225A490D2000F090
:1082F00081FC054600BF2E46002E05D000BF44A2DB
:10830000AF213046FFF780FF00BF00BF524800F0AA
:10831000A7FC044600BF2546002D05D000BF3CA2A7
:10832000B3212846FFF770FF00BF70BD38B500F0DD
:1083300053FE044600BF2546002D05D000BF34A2E1
:10834000C1212846FFF760FF00BF444800906846FF
:1083500000F058FE044600BF2546002D05D000BFA2
:108360002BA2C5212846FFF74FFF00BF38BD70B5CF
:1083700000F071FE044600BF2546002D05D000BF69
:1083800023A2D3212846FFF73FFF00BF70BD70B581
:108390003DDF044600BF2546002D05D000BF1CA2CE
:1083A000DC212846FFF730FF00BF70BD01F0C0FBA5
:1083B00000F0F0FA00F032FB29A001F0ABFFFFF76C
:1083C00090FF00F03FFAFFF7B1FFFFF7D0FF01E0A9
:1083D000FFF7DDFFFCE700005B4150504C5D3A20A9
:1083E0004153534552543A2025732C2025642C20A8
:1083F0006572726F722025640D0A0000000500503E
:108400000400FA0500ED00E0EFBEADDE10B801009B
:108410002E2E5C6D61696E2E630000005B41505032
:108420004C5D3A20446973636F6E6E656374656476
:108430000D0A00000D0A474F544F20626C655F65BE
:1084400076745F64697370617463682E2E2E2E0DCE
:108450000A00000034280020CB8201004B8201007A
:10846000585858585858585858585858585858588C
:108470005858585858580D0A00000000024600216C
:108480000AE024204843FE4B185A904203D124208E
:108490004843C0187047491C0829F2DB0020F9E75F
:1084A000F8B5044601206060F6480178684681709E
:1084B000F5490180012720886A46394680DF054654
:1084C00000BF2E46002E06D000BFF0A25D21304630
:1084D000FFF79AFE00BF00BFF8BD70B5044602204A
:1084E0006060208821460C3182DF054600BF2E46A1
:1084F000002E06D000BFE5A26C213046FFF784FEB7
:1085000000BF00BF70BD70B50446032060602088C6
:1085100021461A3183DF054600BF2E46002E06D0C5
:1085200000BFDAA27A213046FFF76EFE00BF00BF1F
:1085300070BD7FB50446042060600121684601706B
:108540000021417001210171E18BC1800021018175
:10855000022141810390208801A987DF054600BFE1
:108560002E46002E06D000BFC8A292213046FFF74B
:108570004BFE00BF00BF7FBDF8B50446A088FFF7E3
:108580007DFF0546002D38D06868012835D1E08888
:10859000002802D0062068602FE0BA4801786846BB
:1085A0008170B949018000261DE068468178F2009B
:1085B00020460A3010188078814213D1684601881D
:1085C000F20020460A30805A81420BD1F200204648
:1085D0000A3011180822A81801F04AFB2846FFF7B4
:1085E0007CFF03E0761C2089B042DEDC00BF6868B7
:1085F000012801D10620686000BFF8BDF8B5054626
:10860000A888FFF73BFF0446002C51D06068022881
:108610004ED1E888002802D00620606048E09948E2
:10862000017868468170984909310180002635E05B
:10863000684681780A20324642432818101880780C
:1086400081422AD1684601880A20324642432818CE
:10865000805A814221D10A203246424328181118FB
:108660000A222046103001F003FBE08A801C608360
:108670002889401EB04209DD701C0A21414328466A
:108680000A300818C088401EA08302E00021C943B8
:10869000A1832046FFF737FF03E0761C2889B0420C
:1086A000C6DC00BF6068022801D10620606000BF00
:1086B000F8BDF8B50446A088FFF7E0FE0546002D9A
:1086C0003BD06868032838D1E088002802D0062013
:1086D000686032E00121684681707249018000269D
:1086E00021E06846817806203246424320460A301F
:1086F00010180079814215D168460188062032465B
:10870000424320460A301018408881420AD1062090
:108710003146414320460A30415AE9832846FFF753
:1087200008FF03E0761C2089B042DADC00BF6868ED
:10873000032801D10620686000BFF8BD70B505466A
:10874000A888FFF79BFE0446002C0BD06068042825
:1087500008D12989E08B814202D00620606001E0C7
:108760000520606070BD70B50446A088FFF786FEE6
:108770000546002D20D0686805281DD12189288B49
:10878000814219D1A089012816D1A07B002809D1E6
:108790002021495D0846083001218140424AD160CC
:1087A00000BF09E02021495D0846083001218140D1
:1087B0003D4A916000BF00BF70BD70B5054600BF67
:1087C000287A002801D1012000E000200646002E72
:1087D00006D100BF2DA2FF215831FFF715FD00BFC4
:1087E00000BFA888FFF74AFE0446002C01D00620EF
:1087F000606070BD10B5044620883038030001F079
:10880000B0FD0A061E0A0E1E1E1E12161A1E204655
:10881000FFF7B2FE14E02046FFF7F0FE10E020461E
:10882000FFF747FF0CE02046FFF788FF08E02046EF
:10883000FFF799FF04E02046FFF7BFFF00E000BF0D
:1088400000BF10BD7FB5194B5A6819689868DB687E
:1088500003930192009102900A49684652DF05464F
:1088600000BF2E46002E07D000BF08A2FF21913185
:108870003046FFF7C9FC00BF00BF08200F2120E0F1
:108880007C28002009280020019000002E2E5C6327
:108890006C69656E745F68616E646C696E672E6387
:1088A00000000000022900000005005058B7010038
:1088B000012205231B07072636029B1986009A51C1
:1088C000401C8842F4D900BF00240BE00021242082
:1088D00060432E4A80184160242060438018203075
:1088E0000470641C082CF1DB0020294908707FBD4E
:1088F00027480078704770B506460425002427E015
:108900002420604321494018406800281FD12420BA
:1089100060430A468118304600F0E4FB0546002D0E
:1089200014D1012124206043184A80184160318805
:1089300024206043115216480078401C14490870E6
:10894000242161438818FFF7ABFD00BF02E0641CDF
:10895000082CD5DB00BF284670BD38B505466946F2
:10896000284600F005FD0446002C0DD10098406813
:10897000002808D006480078401E054908700020ED
:108980000099486000E00824204638BD7C2800207B
:108990000828002010B5122000F022F8132000F063
:1089A0001FF810BD10B5122000F023F810BD10B54F
:1089B000122000F023F810BD10B5122000F023F8AB
:1089C00010BD10B5132000F014F810BD10B5132021
:1089D00000F014F810BD10B5132000F014F810BD0D
:1089E00001210522120707231B02D2188300D15050
:1089F000704701218140084A916070470121814000
:108A0000054AD160704704494968012282405140BB
:108A1000014A5160704700000005005010B5002069
:108A20003B494860092008613A483B4915229201B8
:108A3000891888600120800438494860022038493C
:108A400008600A2001218140364A116000BF0321DD
:108A500000F026F80A2001218140334A116000BF4E
:108A600001202D49086010BD10B530480068401C39
:108A70002E4908602A48C038806801280FD127484D
:108A80004068012189040840002808D000212448BA
:108A9000C0388160FFF790FF01201F49C86010BDFA
:108AA00010B5002819DA224A03071B0F083B9B0860
:108AB0009B00D2588307DC0EFF23A3409A438B0709
:108AC0001B0E8407E40EA3401A43194B0407240F1E
:108AD000083CA408A4001A5118E0134A03231B02FF
:108AE000D21883089B00D2588307DC0EFF23A340D3
:108AF0009A438B071B0E8407E40EA3401A430A4BCC
:108B0000032424021B198408A4001A5110BD00007C
:108B100000A500401A06000000A0004000A300408D
:108B200000A2004080E200E000E100E00428002014
:108B30001CED00E070B506460C4615462946204659
:108B4000FFF77CFB70BDF8B55B480078002800D1CA
:108B5000F8BD5A480068002801D1012000E000203B
:108B6000054657480068002801D1012000E0002098
:108B7000064600BF002D14D168464BDF0446052C85
:108B800001D101250CE0002C06D000BF4DA27121BF
:108B90002046FFF739FB03E04849009809688847F9
:108BA00000BF002E1DD150480088009069464F48F4
:108BB000006850DF0446052C01D1012610E0002C8E
:108BC00006D000BF3FA288212046FFF71DFB07E02B
:108BD00047A001F09FFB454800683949096888476C
:108BE00000BF002D02D0002E00D000E0C2E700BF81
:108BF00000BFADE7FFB581B00C4616461F46002CFE
:108C000002D1072005B0F0BD20468107890F002959
:108C100001D1012100E00021002901D10720F1E765
:108C200032480460304806803D4807603D4901985D
:108C300010DF0546002D01D02846E3E701201E493C
:108C40000870162023DFDDE710B511DF0446002C85
:108C500001D0012000E0002017490870204610BD17
:108C60000146002901D10E207047154801600020FF
:108C7000FAE70146002901D10E2070470F48016034
:108C80000020FAE770B526480068002811D0244873
:108C900000688047044600BF2546002D07D000BF6E
:108CA00008A2FF213D312846FFF7AEFA00BF00BF02
:108CB00001E0FFF748FF70BD162800201C280020A7
:108CC000182800202E2E5C2E2E5C636F6D6D6F6E4B
:108CD0005C736F66746465766963655F68616E6412
:108CE0006C65722E630000001428002010280020FC
:108CF00043616C6C206170706C69636174696F6E44
:108D0000277320424C4520737461636B2065766540
:108D10006E742068616E646C65722E2E2E0D0A00D2
:108D20000C280020358B01000021C200F74B995020
:108D3000C200D2185171C200D218117170470121BE
:108D4000C200F34B99540021C200D2185160491E51
:108D5000C200D2185180704770B503460C460820F7
:108D600000210FE0CD00EA4E755D2540002D08D0B2
:108D70000520CD00AD196D889D4202D11160002003
:108D800002E0491C0829EDD300BF70BD10B50446B0
:108D90002068C000DE49085C012807D02068FFF782
:108DA000CEFFDA484079401ED849487110BDF3B56E
:108DB00087B00C460026079800680690D7E0069812
:108DC000805D0490711C0698405C0390B11C06986D
:108DD000401820600498401EA0800398092848D0BD
:108DE00004DC012807D003287ED138E0162845D0BE
:108DF000FF28F9D162E0C7A001F08CFA2068007862
:108E0000C007C00F002802D0C4A001F083FA206878
:108E1000007802210840022802D1C6A001F07AFAA7
:108E20002068007804210840042802D1C7A001F07E
:108E300071FA2068007808210840082802D1C9A0EA
:108E400001F068FA2068007810210840102802D14B
:108E5000CDA001F05FFAD4A001F05CFA81E02068B7
:108E600040780002226812788118D4A001F052FAEA
:108E700077E0DEA0216801F04DFA72E0E2A001F097
:108E800049FA206840780002226812788118E2A02E
:108E900001F040FA002002900AE02068401C2060A7
:108EA0000178E0A001F036FA0298401CC0B20290AE
:108EB000A088801E02998842EFDC52E02568059563
:108EC000059DA878022844D1E878152841D1687812
:108ED00000022A788118D7A001F01CFAD9A001F06D
:108EE00019FAE978DBA000E037E001F013FAE0A01E
:108EF00001F010FA002715E000BF7900281D405C42
:108F000001900198000201907900281D081840780E
:108F100001990843019000BF3946D8A0019A01F099
:108F2000F9F97F1C082FE7D3287D0202687D11180C
:108F3000D5A001F0EFF9A87D0202E87D1118D5A0B7
:108F400001F0E8F9287EC11FF939D5A001F0E2F956
:108F500002E0D9A001F0DEF903E0DDA001F0DAF9CA
:108F600000BF00BF0698805D401C861900BF0798AF
:108F70008088B04200D922E7002009B0F0BD10B5CA
:108F8000DA4876DF0446002C0AD1604800790221D5
:108F900008435E4908710021022000F063FD03E0F0
:108FA0002146D3A001F0B6F9204610BD10B577DFF9
:108FB0000446002C0AD155480079022188435349C0
:108FC00008710021032000F04DFD03E02146C8A0F8
:108FD00001F0A0F9204610BD10B5002403E02046A2
:108FE000FFF7A2FE641C002CF9D0002403E0204609
:108FF000FFF7A5FE641C082CF9D30120C6490870B0
:10900000002010BD30B5014600BFC34800780028DD
:1090100001D1082030BD00BF002901D10E20F9E7A1
:109020000868002801D10E20F4E700BF0420374C67
:109030002468002C01D10023002000BF0246002A32
:1090400007D1DC00314D086828510120DC0064198B
:1090500020711046DEE710B500BFAF480078002849
:1090600001D1082010BD00BF00BF284800680028BB
:1090700001D10820F6E700BFA8A001F04BF9FFF7E7
:109080007EFFEFE7F8B504460E4600BFA248007821
:10909000002801D10820F8BD00BF00BF1B480068B0
:1090A000002801D10820F6E700BF002C01D10E20D6
:1090B000F1E7002E01D10E20EDE720886A46042159
:1090C000FFF74AFE0546002D0AD13178208866DF79
:1090D0000546002D04D108200099C9000C4A5054BF
:1090E0002846D8E7F8B504460D4600BF8A48007800
:1090F000002801D10820F8BD00BF00BF0348006868
:10910000002801D10820F6E71AE1000020280020FD
:109110009C290020466C6167733A20004C696D6998
:1091200074656420446973636F76657261626C650F
:109130002E20000047656E6572616C204469736380
:109140006F76657261626C652E20000042522F4579
:109150004452204E6F7420537570706F7274656442
:109160002E2000004C4520616E642042522F454461
:10917000522043617061626C6528436F6E74726F38
:109180006C6C6572292E20004C4520616E64204273
:10919000522F4544522043617061626C6528486FCC
:1091A0007374292E200000000D0A426561636F6E02
:1091B00020646174613A0D0A00000000436F6D7015
:1091C0006C657465206C697374206F662031362D70
:1091D0006269742053657276696365205555494408
:1091E000733A20305825780D0A000000436F6D70E7
:1091F0006C657465204C6F63616C204E616D653ADF
:109200002025730D0A00000053657276696365209E
:10921000446174613A0D0A00555549443A30782545
:10922000580D0A00446174613A203A20307825587C
:1092300000000000436F6D70616E793A30782558F8
:109240000D0A0000547970653A20426561636F6EC3
:109250000D0A00004C656E677468206F66206461BB
:1092600074613A2025642062797465730D0A0000E8
:10927000555549443A200D0A00000000095B256459
:109280005D3A2025780D0A004D616A6F723A2025FB
:10929000640D0A004D696E6F723A2025640D0A0054
:1092A0005253534920617420316D3A202564206463
:1092B000426D0D0A00000000556E6B6E6F776E20D8
:1092C00064617461207061636B65740D0A00000055
:1092D000556E7265636F676E697A6564205061636D
:1092E0006B657420747970650D0A000068B7010021
:1092F0005B434D5D3A205363616E207374617274F9
:10930000206661696C65642C20726561736F6E20E4
:1093100025640D0A00000000282800202043616C0D
:109320006C207468652066756E6374696F6E207357
:1093300063616E5F737461727428290D0A00000006
:1093400000BF002C01D10E20D5E6002D01D10E204A
:10935000D1E620886A460421FFF7FEFC0646002E6F
:1093600004D10098C000F849401845603046C2E674
:10937000F8B504460D4600BFF4480078002801D136
:109380000820F8BD00BF00BFF1480068002801D1E7
:109390000820F6E700BF002C01D10E20F1E7002DD8
:1093A00001D10E20EDE720886A460C21FFF7D4FC9E
:1093B0000646002E05D10098C000E34940184068D9
:1093C00028603046DDE7F0B51FB486B016461F466C
:1093D000002213463046394600F002FE03D1002039
:1093E000DC490BB0F0BD069800F0E6FD0022DA4B38
:1093F000059104903046394600F0FEFC039102903E
:10940000059B049A00F060FD04460D460022D24BF5
:109410002046294600F0E4FD06D20022CF4B20462C
:10942000294601F081FCDCE7CD4ACE4B2046294697
:1094300001F07AFCCC4ACD4B0191009000F0DCFCAD
:10944000CB4ACC4B0391029000F024FC0591049090
:1094500005990498C5E7F0B591B0044600200F9037
:1094600000BFBA480078002801D111B0F0BD00BF9C
:109470000020C0430E9000200A9000272088192861
:1094800066D004DC102807D011287DD13EE01B28CF
:109490007BD01D28F9D1A6E2AD480079042108400F
:1094A000042832D110AA0221B348FFF755FC074621
:1094B000002F2AD1A648007904218843A4490871C5
:1094C00001200F90A1880E91062108A80173A01D0C
:1094D0000C9010216846818600200A90A08810997F
:1094E000C900994A8918488004201099C90050542D
:1094F00001200F9096484079082803D1882094498C
:10950000087102E0FFF73BFD07467BE2A08810AA46
:109510000C21FFF721FC0746002F15D1617B97A096
:1095200000F0F8FE08201099C900874A5054012025
:109530000F90A1880E91072108A80173A01D0C901F
:1095400008216846818602E0944800F0E3FE59E273
:10955000A07902281FD192A000F0DCFE7C4800799F
:1095600002210840022835D179480079884378499A
:10957000087101200F90811E0E91032108A801732C
:1095800000200C90002101E03BE224E06846818647
:109590000D200A901EE0A07903281BD186A000F0C0
:1095A000B9FE10AA02217448FFF7D6FB0746002F28
:1095B00010D110A8FFF7EAFB01200F90811E0E9139
:1095C000062108A8017300200C90002168468186BE
:1095D0000D200A9016E23B20C043099080A000F0C5
:1095E00099FE82A000F096FE89A000F093FE5848F4
:1095F000017990A000F08EFEA07B4007810F96A01D
:1096000000F088FE0D2161569BA000F083FEA07B38
:10961000C108A1A000F07EFEA07BC107C90FA6A0D3
:1096200000F078FEA179ADA000F074FE0020089053
:1096300009E0E01D089A815CB3A000F06BFE089879
:10964000401CC0B2089008980628F2DB0D20205676
:1096500000F0B2FC02460B46079106905320C0432F
:10966000FFF7B1FE05460E462A463346B2A000F08B
:1096700051FE3748007902210840022861D1344860
:1096800000790421084004285BD031480079882102
:1096900008408828F8D0A07B4007800F002804D01D
:1096A000A07B4007800F0128E8D10D216156099861
:1096B000814246DBAEA000F02DFE00200790204640
:1096C0000F300590A07BC0086946088303A905A850
:1096D000FFF76DFB0746002F04D003A905A8FFF78D
:1096E00066FB0746079801282CD1A5A000F012FEC2
:1096F00010A8029001212048029AFFF72DFB01904B
:10970000019800280BD1022102980068C0000E4A7F
:1097100011540F484079401C0D49487101E0042064
:10972000019001980746002F0CD1FFF73FFC074638
:109730009B4A9C49A01D78DF0746002F03D039467D
:1097400032E14FE14DE136E19C290020282800203C
:10975000202800200000F0BF0000F03F000024405F
:109760004A0C022B87D61E407BF7C77BD5CAEC3F3D
:10977000D122DBF97E6ABC3FFFFF00005B434D5DF9
:109780003A20446973636F6E6E656374205265613D
:109790006F6E203078253034580D0A0098B80100DB
:1097A0005B434D5D3A205363616E2054696D65647F
:1097B0006F75742E0D0A00005B434D5D3A20436FB8
:1097C0006E6E656374696F6E205265717565737432
:1097D0002054696D65646F75742E0D0A00000000D9
:1097E0004E4F54452E2E2E2E0D0A0000476F20742A
:1097F0006F20424C455F4741505F4556545F41449E
:10980000565F5245504F52542E2E2E2E0D0A0000F8
:109810002E2E2E2E2ED6F7BBFABDD3CAD5CAFDBE2C
:10982000DDC8E7CFC2C0EFCBF9CABE2E2E2E2E2E3A
:109830000D0A0000746865206D5F6170705F74616F
:10984000626C652773207374617465206973203AB4
:109850002025640D0A000000746865206164765F4D
:109860007265706F72742074797065206973203A24
:109870002025640D0A000000746865206164765F2D
:109880007265706F72742072737369206973203A05
:109890002025640D0A000000746865206164765F0D
:1098A0007265706F727420646C656E206973203A03
:1098B0002025640D0A000000746865206164765FED
:1098C0007265706F7274207363616E5F7273702063
:1098D0006973203A2025640D0A0000007468652031
:1098E0006164765F7265706F727420706565725F17
:1098F0006164647227732074797065206973203AFB
:109900002025580D0A000000746865206164765FA8
:109910007265706F727420706565725F61646472E5
:1099200027732061646472657373206973203A2021
:1099300025580D0A000000004E4F54453A2063613F
:109940006C63756C6174696E672069626561636FD1
:109950006E2064697374616E63696E67202E2E2EAB
:109960002E2566206D65746572730D0A0000000077
:10997000737563636573732E2E2E2E0D0A0000001F
:109980005B434D5D3A20496E6974696174696E6725
:1099900020636F6E6E656374696F6E0D0A00000060
:1099A00078B7010068B7010036A000F0B3FC10A83A
:1099B000FFF7ECF915E039463EA000F0ABFC494852
:1099C0000079042108434749087101200F900521BF
:1099D00008A80173A01D0C9007216846818600200D
:1099E0000A9000BF0EE0404800F094FCA088A11D42
:1099F00065DF0746002F03D039463CA000F08AFC03
:109A000000E000BF00BF0F9800281ED00BA90EA8D1
:109A10000A9A00F01CF808A8007B072815D110A8A6
:109A2000FFF7B4F92F48007988280ED12D48007926
:109A3000882188432B490871FFF7A1FA0746002FB8
:109A400003D03946394800F065FC00BF0DE5F8B594
:109A500004460D46164623480768324629462046E6
:109A6000B847F8BD7FB504460D466846047000212E
:109A70000181002001902A46694603A8FFF7E7FF0D
:109A80007FBD00005B434D5D3A20436F6E6E6563A2
:109A900074696F6E205265717565737420466169D3
:109AA0006C65642C20726561736F6E2025640D0AED
:109AB000000000005B434D5D3A20436F6E6E6563AE
:109AC00074696F6E20526571756573742053756388
:109AD000636573732C20726561736F6E2025640D4E
:109AE0000A0000002028002054B801005B434D5DAF
:109AF0003A20436F6E6E656374696F6E2070617299
:109B0000616D65746572207570646174652072653D
:109B10007175657374206661696C65642C2072656B
:109B200061736F6E2025640D0A000000F092010041
:109B300008B500200B230A2209210090082000F01C
:109B40004FF808BD70B504460D46E0B200F02DF8A0
:109B5000204670BD00BF424880680128FBD100202C
:109B60003F4988603F488069C0B2704770B504467D
:109B70000D4601260AE02046641E002804DB7D20F5
:109B8000C000FEF7A7FA01E0002603E03448806831
:109B90000128F0D100BF002C05DB0020304988608F
:109BA000304880692870304670BD2E49C86100BFBA
:109BB0002B49C9690129FBD10021294AD16170478C
:109BC00030B50346002528466D1C1C5C05E0204688
:109BD000FFF7EBFF28466D1C1C5C002CF7D130BD55
:109BE000F8B507460C4615461E46204600F025F8F7
:109BF0000021304600F02AF81A48C46046610698F1
:109C000000280DD0384600F018F80021284600F052
:109C10001DF8144805618760012012494031C8626F
:109C20001148104948620420086001200F498860EB
:109C3000086000200A498860F8BD0121052212074A
:109C400007231B02D2188300D150704710B58A0039
:109C500005231B07072424021B1984001A5110BD79
:109C6000002100400025004000E0D7010020004016
:109C700003460B439B0703D009E008C9121F08C025
:109C8000042AFAD203E00B780370401C491C521ED0
:109C9000F9D27047F0B507460846584087B0C00F64
:109CA000049048000E46590040084908BC1A8841F3
:109CB00005D2384631461E4617460B460246580026
:109CC000400810434CD0300D039040055900400D22
:109CD000490D0590401A0290402872DA18030121BC
:109CE000000B09050843019004980092002805D054
:109CF000019952420020884100920190029840212F
:109D00000A1A0199009800F0C5F905460C466B4601
:109D100007CB00F0CFF9C0197141039A0E0D002353
:109D2000D71756401A467A40164344D0049A002A60
:109D30002DD0029A012A039A15DC1205C01A91410E
:109D400001263605001C7141D20F059ED2070093F3
:109D5000019202962A46234600F0CCF907B0F0BDE6
:109D600038463146FAE71605224A0F46B218C01A9D
:109D7000B74101210905001C4F4100187F411146E0
:109D800018187941E20F10436D19644113E0E2079E
:109D90006D0815436408C2071443039A012612058F
:109DA000C01A91413605001C7141CE07400830436E
:109DB0004908C01851412A46234600F08EF9CDE7E4
:109DC000FFE7049801224000C117121A00238B41BB
:109DD00004983146C417381AA141EEE730B4012483
:109DE000E407634030BC55E730B40124E407614028
:109DF00030BC4FE70000E0FFF0B51FB488B00B990E
:109E00000998002448400999C00F49004908099160
:109E1000C0070B990090490049080B9109990898CF
:109E2000A64608431CD00B990A98084318D00998F5
:109E300001244000420D4800410D0998240500030B
:109E4000000B204309900B980003000B20430B905C
:109E500050181C494018002201901446104605E095
:109E6000002001460DB0F0BD032801DA034600E0F2
:109E700003239C46C11A0AAE0AE05F0008ADED5B01
:109E80004F00F75B7D430027AA187C41491C5B1EED
:109E90006145F2DD410004AB5A522104120C0A4321
:109EA000240C401C0828DFDB0198029000997046C2
:109EB00001910090059B049A0799069800F01AF901
:109EC000D0E700000DFCFFFFF0B50C465C4085B00C
:109ED000E40FE40703944C000026640859009446FC
:109EE000490802460296224321D062460A431ED008
:109EF0006200570D4A000E032303550D012402464C
:109F00002C492405781B1B0B360B40182343264392
:109F1000614600901C46501AB44103D30098401C7F
:109F2000009002E0921800985B41002803DA0020BC
:109F3000014605B0F0BD002001210905074686460F
:109F400011E064461D46141BB54106D36546521BFD
:109F5000B341744607430C43A646CD074008490861
:109F6000284392185B4105460D43EAD11046184339
:109F700013D06046194650407140084306D06046F1
:109F8000101AB34106D20122002306E00022012369
:109F9000DB0702E00122D24353100098744601050A
:109FA000381C6141029C039D0019694100F095F83D
:109FB000BFE70000FD0300000EB5C217C10F5040FF
:109FC000CA0740180021054B0293019200910A46EE
:109FD0000B4600F08FF803B000BD00003304000012
:109FE00010B5002904DB0124E40740428C412146DE
:109FF000002B04DB1C460123DB075242A3418B42AA
:10A0000000D1824210BD000030B50B460146002051
:10A010002022012409E00D46D5409D4205D31D466E
:10A020009540491B2546954040191546521E002D66
:10A03000F1DC30BDF0B51FB40646002082B0054605
:10A040004024019100901BE0019922460F463046C2
:10A0500000F0FEF8049A059B801A994110D310462F
:10A060001946224600F016F8361A8F41019722460B
:10A0700001200021009F00F00DF838184D4100909C
:10A080002046641E0028DFDC019B009829463246EA
:10A0900007B0F0BD10B5202A04DB0146203A9140FC
:10A0A000002010BD914020239C1A0346E340194331
:10A0B000904010BD10B5202A06DBCB170846203A89
:10A0C0001041C1170B4306E00B461341D04020243A
:10A0D000A21A91400843194610BD10B5002B08DAAA
:10A0E0000024401C614192185B411A4301D1400891
:10A0F000400010BDF0B51FB482B005460C0003D07F
:10A10000084600F017F902E000F014F9203002468A
:10A11000009021462846FFF7BDFF049B059A0446A0
:10A120000F4618431143084314D0184610431BD060
:10A13000009840210A1A1846059900F089F805464A
:10A140000E46009A05990498FFF7A4FF084305D02E
:10A15000012004E02046394607B0F0BD0020C117B9
:10A1600005430E432C43374300990E986305401A6C
:10A170007905E40A00220C43FD0A0A3002D50020CA
:10A180000146E9E70105101969410C9C0D9D001974
:10A190006941FFF7A2FFDFE770B54B005B0803439F
:10A1A0000BD04B005C0D002633466542B341D417FB
:10A1B000AD1AA34102DB0020014670BD1205301824
:10A1C000514170BD4A0009030123090B1B051943C6
:10A1D0000A4B10B5520D9A4202DA0020014610BD1A
:10A1E000064B34339A4203DC9A1A00F031F810BD62
:10A1F000034BD218FFF74EFF10BD0000FF03000015
:10A20000CDFBFFFF10B5002904DB0124E407404229
:10A210008C412146002B04DB1C460123DB07524204
:10A22000A341994200D1904210BD0000064C012587
:10A23000064E05E0E36807CC2B430C3C98471034EE
:10A24000B442F7D3FDF740FFE0B8010000B90100C8
:10A2500010B5202A04DB0846203AD040002110BD6A
:10A260000B46D340D0402024A21A914008431946FF
:10A2700010BDFEB500231A461B1A8A4103DB0020DD
:10A28000014603B0F0BD4A000D0301212D0B090565
:10A29000520D0D43D10702D100186D41521E5110CD
:10A2A000FF31FF310131002704463E463846009712
:10A2B00001910246012100200905FFF7C9FFC319DA
:10A2C0007141F818324684468E464A416146284616
:10A2D000611A904104D36046241A954176461F4680
:10A2E000241900986D41401C00903428E1DDF919D3
:10A2F00030467041091BA84103D20022D2431346C5
:10A3000001E00022134601980105381C7141FFF756
:10A31000E4FEB6E70FB410B503A9044B044A029853
:10A3200000F066F910BC08BC04B01847459B01005A
:10A330002C2800202021020C01D010211046020AF6
:10A3400001D010460839020901D01046091F8208C1
:10A3500001D01046891E420801D0881E7047081A95
:10A36000704730B47446641E2578641CAB4204D335
:10A37000635D5B00E31830BC18471D46F8E700003A
:10A380004900CA020243100000D004204A0D01D047
:10A3900001221043044A490D914201D10221084390
:10A3A000012800D105207047FF070000F8B50446DA
:10A3B0004F1EC8000838211815461E46086849680F
:10A3C0003A4606239A4310D02A463346FFF714FD37
:10A3D0003A46D200083AA3181A687F1E5B68FFF756
:10A3E00059FC06223B469343EED1022F23D0042F83
:10A3F00011D0062F2FD12A463346FFF7FDFCE36A22
:10A40000A26AFFF747FC2A463346FFF7F5FC636A6A
:10A41000226AFFF73FFC2A463346FFF7EDFCE3696B
:10A42000A269FFF737FC2A463346FFF7E5FC63696C
:10A430002269FFF72FFC2A463346FFF7DDFCE3686D
:10A44000A268FFF727FC2A463346FFF7D5FC63686E
:10A450002268FFF71FFCF8BD034A10B50020110762
:10A46000FFF79AFE10BD000001FDFFFF02E008C8E3
:10A47000121F08C1002AFAD170477047002001E07E
:10A4800001C1121F002AFBD170470000014908607A
:10A490007047000030280020F0B51FB484B0079842
:10A4A0000699020D014314D04A484B4910184843FD
:10A4B00005140F9801280E981CD0281A401C00245F
:10A4C000464E4749009401910290002814DA474211
:10A4D00027E00F98012443A3012808D00021049805
:10A4E0000F9A84600360C260416009B0F0BD0E98AD
:10A4F000C143F4E74042E2E7074612E0F80707D01D
:10A500002246334601990098FFF776FC01910090AE
:10A510002246334610461946FFF76EFC04460E46A7
:10A520007F10002FEAD10298019B0028009A07991A
:10A53000069802DAFFF760FC01E0FFF7C5FC04466D
:10A540000E460022284BFFF75DFE03D80020C043D3
:10A55000014607E00022254B20463146FFF79AFBD3
:10A56000FFF730FE102409E0002C0ADB0A2200234A
:10A57000FFF760FD059B30321A55641E02460A4300
:10A58000F2D11122641C059B121B1C190F9B012B7D
:10A5900003D0012308430ED10AE0084304D0112060
:10A5A0000E9000200F9084E70E98151A6D1E0BE098
:10A5B0000E98824202DD00236D1C03E0824201DA24
:10A5C00000236D1E002BEED004980F998260C160AD
:10A5D00030C08AE701FCFFFF104D0000000024405E
:10A5E0000000F03F300000000000F0430000E03FBA
:10A5F000FFB597B00646002518E2252877D100243C
:10A600002746FD49049400E00443761C327801207B
:10A61000203A90400842F7D130782A280ED0022202
:10A62000307801463039092916D804990A2359434C
:10A63000303940181443761C0490F1E7189802C88A
:10A6400004911890002904DA012040030443484291
:10A65000049002200443761C30782E2814D1042064
:10A6600004437078761C2A2809D11898761C80C873
:10A67000189009E00A214F43303FC719761C307803
:10A68000014630390929F5D930786C2810D006DC1C
:10A690004C281AD068280ED06A2817D104E07428F4
:10A6A00013D07A2812D110E00120400504430CE0B9
:10A6B0000121090501E0032109050C43717881425C
:10A6C00003D1012000052418761C761C30781190E7
:10A6D00066280BD013DC58287DD009DC00287BD0FD
:10A6E0004528F6D04628F4D047281AD1A5E118E02D
:10A6F000632835D0642870D0652812D19DE1702878
:10A700006CD008DC6728F1D069287BD06E280DD08A
:10A710006F2806D1BAE073282ED0752871D078281A
:10A7200059D01A9A199990476D1C7EE16002400F2A
:10A73000022809D003280DD00428189801680DD0EC
:10A740000D60001D189070E11898EA1701680D60FF
:10A750004A60F6E7189801680D80F2E70D70F0E79F
:10A7600018986A4601781172001D189000205072E6
:10A7700002A80090012005E0189802C81890002057
:10A780000091C04361070DD5002101E00199491CEA
:10A790000191B94212DA8142F8DB009A515C00293A
:10A7A000F4D10BE0002101E00199491C01918142A3
:10A7B000FADB019A0099895C0029F5D10199049886
:10A7C0001A9B471A21463846199A00F097FA0199C0
:10A7D000401945180BE04FE02CE113E04EE00098E3
:10A7E00000990078491C00911A9A1999904701988C
:10A7F000401E0190401CF2D1214638461A9B199AFE
:10A8000010E137E00A200021009001916002410F21
:10A81000022907D0189A01CA1892C2179446032930
:10A8200008D00AE01898C01DC108C90005C91891D0
:10A83000944607E000B2C2179446042902D140B200
:10A84000C1178C4600226146944506DA0A4600216B
:10A85000404291418C462D2102E0210504D52B2157
:10A860006A461173012103E0E10701D02021F7E7D7
:10A87000029155E00A200AE0102008E01020009024
:10A880000021042004430191082703E0082000214F
:10A89000019100906002410F022907D0189A01CA65
:10A8A000189200229446032908D008E01898C01D89
:10A8B000C108C90005C91891944603E080B2042973
:10A8C00000D1C0B200210291210729D51199702928
:10A8D00006D0009A1021019B4A401A4305D00EE091
:10A8E00040216A461173012108E06146014306D008
:10A8F00030216A4611731199517302210291009A15
:10A900000821019B4A401A430AD16146014301D103
:10A91000610705D530216A46117301217F1E02911E
:10A920001199582904D035A10E910DA90D910DE072
:10A9300037A1F9E76146019B009AFFF77BFB0E9B6D
:10A940008C469B5C0D9A521E0D921370614601431A
:10A95000F0D10D9805A9081A20300190600703D5A1
:10A9600001200004844300E001270198874201DDB3
:10A97000381A00E000200199009041180298091847
:10A980000498401A0490E00306D421461A9B199AB1
:10A99000049800F0B3F94519002706E003A81A9AB5
:10A9A000C05D199990476D1C7F1C02988742F5DBAA
:10A9B000E0030CD521461A9B199A049800F09EF9E1
:10A9C000451904E01A9A3020199990476D1C009996
:10A9D000481E00900029F5DC08E00D980D990078DC
:10A9E000491C0D911A9A199990476D1C0199481E9E
:10A9F00001900029F1DC63E1092801003031323394
:10AA000034353637383961626364656600000000AA
:10AA10003031323334353637383941424344454694
:10AA20000000000000F05AF94519761C3078002823
:10AA300000D0E2E528461BB0F0BD600700D4062731
:10AA40001898C01DC108C90048680A680831C30FBA
:10AA5000DB071891190001D09CA108E0210501D560
:10AA60009BA104E0E10701D09AA100E09AA1430074
:10AA700011985B08109165280CD006DC452809D098
:10AA800046281DD0472841D141E0662818D06728C4
:10AA90003CD13CE00021112F01DB112000E0781CAB
:10AAA0000191009008A911A8FFF7F6FC13990591F0
:10AAB0000021119A15927F1C12980197009150E085
:10AAC0000120C00703900120019008A9009711A858
:10AAD000FFF7E2FC139A149905920022119B009251
:10AAE00012981593059A0192002901D0104602E0B0
:10AAF000791C40180190381A01D5019804E04042B1
:10AB0000401E0090781C0190C01B029043E0012F72
:10AB100000DA01270021112F01DD112000E0384665
:10AB20000191009008A911A8FFF7B6FC13990591AF
:10AB3000119A0021129815920091019721070CD4C7
:10AB40000599B94201DB019900E00191012904DD79
:10AB5000159A491E515C302906D0B84201DA011D10
:10AB600005DA0121029115E00199491EEDE700285F
:10AB700005DC0099411800910199091A03E0019A36
:10AB8000411C914200DD01910099401A401C029045
:10AB90000120C0070390200706D402990198814242
:10ABA00002DB0020C043029000206946C87707AF4F
:10ABB000012103980337C907884224D0022011904D
:10ABC0002B201290039800280CDA404203902D208D
:10ABD000129007E00A210398FFF716FA30317F1E22
:10ABE000039039701199481E11900029F2DC0398E6
:10ABF0000028EFD1791E1298087030782021084083
:10AC00004530BF1E387006A8C01BC01D03901098A9
:10AC10000078002800D00120019941180298C0173F
:10AC20000918039809180498401A401E0490E0037C
:10AC300006D421461A9B199A049800F05FF845192A
:10AC400010980078002803D01A9A199990476D1C23
:10AC5000E00324D521461A9B199A049800F04EF877
:10AC600045191CE00098002807DB009905988842E8
:10AC700003DD1598405C199901E0199930201A9A62
:10AC8000904700986D1C401C00900298401E029056
:10AC9000002804D11A9A2E20199990476D1C019909
:10ACA000481E01900029DDDC05E038781A9A7F1CE7
:10ACB000199990476D1C0399481E03900029F4DCF4
:10ACC00021461A9B199A0498ACE600002D0000005A
:10ACD0002B0000002000000000000000F8B5044632
:10ACE00000251E461746880404D405E03946202076
:10ACF000B0476D1C641EF9D52846F8BDFFB5044663
:10AD0000002581B01E46C80301D5302700E020276A
:10AD1000880404D505E038460399B0476D1C641ECD
:10AD2000F9D5284605B0F0BDF0B51FB496B005467C
:10AD300084460C461898199A009049005000630008
:10AD4000490840080493002D01D0012600E00026A8
:10AD50009E19FE4BF318FE4EB3420AD3009E5300D9
:10AD6000002E00D001269F19F84EBF197610B74269
:10AD700007D260462146199B189AFEF78BFF1BB03D
:10AD8000F0BD009F06463E4371D0F24EB44201D161
:10AD90002E006CD06746049E002F00D00127F719C3
:10ADA000ED4EB74206D8009F002F00D00127DB19D7
:10ADB000B34207D928462146199B189AFEF76AFF25
:10ADC0001BB0F0BD00230793002C2EDAE34B984212
:10ADD0002BDAE34B984201DB022325E0DD4B98425E
:10ADE00023DBE04B060DF318142B0EDD3426F71A87
:10ADF000009BFB401E46BE40009FBE4215D1DE07B1
:10AE0000F60F02239B1B07930FE0009E002E0CD130
:10AE10001426F61A0346F3401F46B340834204D17A
:10AE2000FE07F60F02239B1B079363460B431FD1BC
:10AE3000002A1DDA002C04D00798022801D001282E
:10AE40000AD00220FFF722FB002213461046C14918
:10AE5000FFF73AF81BB0F0BD0220FFF717FB2A46B8
:10AE600023460020BB49FFF72FF81BB0F0BD14E0CC
:10AE7000009B002B62D1B94B984221D1BA48844241
:10AE800002D16046002808D0B248814209DB002A7E
:10AE900010DB189811461BB0F0BD0020AD491BB067
:10AEA000F0BD002A06DA11460122D2071898514057
:10AEB0001BB0F0BDAD497944086849681BB0F0BDCE
:10AEC000A44EB04224D1002A1EDA002905D09942AE
:10AED00013D16046002809D016E06046002875D1DD
:10AEE0009E49E20FD20711431BB0F0BD0020E20FD4
:10AEF0000146D20711431BB0F0BD994204DA2A463D
:10AF000023460020314669E0284621461BB0F0BDAB
:10AF1000994213DA01239B079A4204D12A46234619
:10AF200010461946EBE3924B9A4207D1231E05DBEC
:10AF30002846194600F0ECFB1BB0F0BD63005B082F
:10AF40006646002E30D100290AD0844EB1422BD162
:10AF5000002C0FDD002A1EDB002031461BB0F0BDA7
:10AF60000798022817D0002C15D0012813D1002CE7
:10AF700015DB10E0002C17DA0798002A09DB0128FE
:10AF800003D0002075491BB0F0BD002079491BB0EB
:10AF9000F0BD012803D0002001461BB0F0BD002009
:10AFA0000121C9071BB0F0BDE617761C079F0D965F
:10AFB0003E430CD0704EB0427EDD704E704BB042BE
:10AFC00016DD99420EDC002A1CDB28E05FE201203E
:10AFD000FFF75CFA0022134610461146FEF774FF95
:10AFE0001BB0F0BD5B48814202DB002A0ADC16E0A0
:10AFF000994202DA002A05DB11E0564B994217DD2F
:10B00000002A0CDD0220FFF741FA07215D4A0020EB
:10B010000907FFF7C1F849004908002251E2022060
:10B02000FFF734FAFFF718FA49004908002248E20E
:10B03000002228462146FEF7D1FE012204460D4695
:10B04000D243FFF7A9F8504A504BFEF7CDFE2246F7
:10B050002B46FEF7D1FE0022454BFEF7C5FE064605
:10B060000F4622462B4610461946FEF7C5FE3B46C4
:10B070003246FEF7C1FE0646032209915207444BB1
:10B0800020462946FEF7B8FE0F460C90414A404B39
:10B0900030460999FEF7B0FE064602913E4A3F4B04
:10B0A00020462946FEF7A8FE3246029BFEF796FE92
:10B0B00004460B46024600E011E0099139460C981F
:10B0C000FEF7E8FD00250E463B4628460C9AFEF7A3
:10B0D00085FE2246099BFEF787FE0B468EE1012482
:10B0E00000202405A14207DA352228461946FFF739
:10B0F00053F805463420C0430A1512181948101891
:10B1000004900803000B134906460E432449884265
:10B1100001DC002003E02349884202DA01200746CF
:10B1200004E004980027401C361B04901E49F800D8
:10B1300079440F9008184368026828463146FEF7A4
:10B140004DFE019119490C90794431E0FFFF1F0039
:10B15000FFFF0F000000F03F0000E0FF0000F07F65
:10B160000000404301FCFFFF0000F0BF4E0900005B
:10B170000000E03F0000F0FF0000E0410000F0436D
:10B18000FFFFEF3F01030000555555555555D53F7D
:10B190004715F73FFE822B6544DF5DF80BAE543E4A
:10B1A0008E9803007AB60B004C06000034060000AF
:10B1B0000F9808184368026828463146FEF76AFD72
:10B1C00002460B460020FE49FEF77EFE09910E90D6
:10B1D000019B0C9AFEF710FE05910A900B91F9481D
:10B1E0000121784400681290701049070843B9049F
:10B1F00040180121C9044718F3490F9879440818E9
:10B2000043680268002439461298FEF7E7FD2A4693
:10B210003346FEF7E9FD02460B4620460B99FEF742
:10B22000EBFD054600913B462046129A0B99FEF72E
:10B23000E3FD019B0C9AFEF7D7FD2A46009BFEF723
:10B24000CDFD099B0E9AFEF7D7FD109105990A9A3C
:10B250000E900B461046FEF7CFFD05460246DB4832
:10B260000E460B4606217844FFF7A0F807462A460B
:10B270003346069110461946FEF7BEFD3A46069B38
:10B28000FEF7BAFD05460E462046059B0A9A0B9925
:10B29000FEF700FD109B0E9AFEF7AEFD2A463346E0
:10B2A000FEF7F8FC019106900B9922460B461046DA
:10B2B000FEF7A2FDC64D00222B4603910090FEF73B
:10B2C000E9FC019B069AFEF7E5FC0F4622462B4659
:10B2D0002046FEF783FD039B009AFEF77FFD019B4E
:10B2E000069AFEF781FD05460E4622463B4610466D
:10B2F0000B99FEF781FD01910C9028463146059B84
:10B300000A9AFEF779FD05460E463B4622461099FD
:10B310000E98FEF771FD33462A46FEF7BBFC064643
:10B320000F460B46024601990C98FEF7B3FC00202D
:10B330000D460446019B0C9AFEF750FD3B463246F3
:10B34000FEF752FD06460F4607225207A14B204644
:10B350002946FEF751FD019102909F4A9D4B3046D0
:10B360003946FEF749FD06460F469C4A9C4B20464F
:10B370002946FEF741FD32463B46FEF78BFC994AD3
:10B3800004467A440F981018436802682046FEF776
:10B3900081FC05910A900498FEF70EFE0746039182
:10B3A000059B0A9A01990298FEF774FC8E4A04469E
:10B3B0007A440F981018436802682046FEF76AFC2A
:10B3C0003A46039BFEF766FC00250E463A462846A1
:10B3D000039BFEF703FD854A04467A440F98101834
:10B3E000436802682046FEF7F9FC019B029AFEF7CB
:10B3F000F5FC059B0A9AFEF7F7FC0B4600210A9123
:10B40000079A0D996E4C521E114301D1784C0A9146
:10B4100000221999049202460F461898FEF7ECFC98
:10B42000009007913B46049A19991898FEF7D6FCAC
:10B430002A463346FEF7E0FC079B009AFEF72AFCFB
:10B44000099110902A46334639460498FEF7D4FCF9
:10B4500006460F46099B109AFEF71CFC654A0D46EE
:10B46000914224DB5242AA18024310D132463B4695
:10B47000FEF7B4FC049003915F4A604B0999109861
:10B48000FEF708FC039B049AFEF7BCFE2FD20220B5
:10B49000FEF7FCFF07215A4A00200907FEF77CFE51
:10B4A00049004908E20FD20711431BB0F0BD6A0002
:10B4B000544B52089A421AD3534AAA1802430CD149
:10B4C00002E011431BB0F0BD32463B46FEF786FC5E
:10B4D000099B109AFEF796FE09D80220FEF7D6FFC8
:10B4E000FEF7BAFF49004908E20FD207E9E7680012
:10B4F0000023400845490493020D454B52189842D9
:10B5000023DD01200005521CD04040194200520D9D
:10B510005118404A7A441268034694463E4ACA404B
:10B52000934302030120120B000510181422511A34
:10B53000C8400490002D01DA404204906246304633
:10B540003946FEF74BFC06460F4632463B46099904
:10B550001098FEF79FFB00200D4602462F4B0E90E1
:10B56000FEF74AFC01910C902D4A2E4B29460E986D
:10B57000FEF742FC0791129032463B4629460E9850
:10B58000FEF72CFC099B109AFEF72EFC264A274B4F
:10B59000FEF732FC079B129AFEF77CFB07460B4630
:10B5A0000246099101990C98FEF774FB0E46054678
:10B5B000019B0C9AFEF712FC3A46099B38E000000A
:10B5C0000000F03F22060000800500004605000054
:10B5D0000000084009C7EE3FFD033ADCF5015B14AB
:10B5E000E02F3EBE1A040000DC030000B20300009E
:10B5F0000000F0BF00009040FE822B654715973C8D
:10B600000103000000CC904000346F3F01FCFFFFBD
:10B610000000E03FF0020000FFFF0F00432EE63F76
:10B62000396CA80C615C20BEEF39FAFE422EE63F71
:10B63000FEF7DAFB2A463346099110901046194668
:10B64000FEF7DAFB02460E902F480F460B46052107
:10B650007844FEF7ABFE3B460E9AFEF7CDFB2A463A
:10B660003346FEF7C1FB0746089128463146099B41
:10B67000109AFEF7C1FB099B109AFEF70BFB012302
:10B6800003910C9000229B0738460899FEF7A6FB11
:10B6900001910E903A4628463146089BFEF7ACFBD6
:10B6A000019B0E9AFEF710FC039B0C9AFEF796FB8B
:10B6B0002A463346FEF792FB0022144BFEF794FB1A
:10B6C000064604980D46000541190915002911DCAC
:10B6D00030462946049AFEF75FFDFEF751FE042826
:10B6E00001D1FEF7B9FE30462946049AFEF754FD13
:10B6F000064600E029180B46324621460A98FEF716
:10B700007BFB1BB0F0BD00008C0100000000F03F8F
:10B71000F8B506460C46FEF7ACFD05000F4600D016
:10B720000120014349000B484908411AC90F0DD0B7
:10B73000002E01D0012100E000210C4361004908E6
:10B74000401AC00F02D10120FEF7A0FE284639465C
:10B75000F8BD00000000F07FB3585540506011E381
:10B760008F96080000009A660000000000000000AC
:10B77000050005000000000090012003000090017A
:10B78000000000000000F03F000000000000F83F53
:10B7900000000000000000000000004003B8E23F8D
:10B7A000000000000000000006D0CF43EBFD4C3E3F
:10B7B000033333333333E33FFFAB6FDBB66DDB3F34
:10B7C0004D268F515555D53F01411DA96074D13F7C
:10B7D00065DBC9934A86CD3FEF4E454A287ECA3F76
:10B7E0003E5555555555C53F93BDBE166CC166BFF8
:10B7F0002CDE25AF6A56113FF16BD2C541BDBBBEF1
:10B80000D0A4BE726937663E000000000000000050
:10B810005B4150504C5D3A5B253032582025303228
:10B8200058202530325820253032582025303258C3
:10B8300020253032585D3A20436F6E6E656374691F
:10B840006F6E2045737461626C69736865640D0A7C
:10B85000000000005B434D5D3A20436F6E6E6563F0
:10B8600074696F6E20506172616D657465722055E8
:10B87000706461746520726571756573742072659A
:10B880006365697665642C20616363657074696EB5
:10B8900067210D0A000000005B434D5D3A204661C0
:10B8A000696C656420746F2066696E64206D6174D4
:10B8B0006368696E6720636F6E6E656374696F6E2F
:10B8C00020696E7374616E63652C2064726F707092
:10B8D000696E67206576656E742E0D0A00000000A3
:10B8E00000B9010000280020340000006CA4010011
:10B8F00034B9010034280020AC0900007CA4010008
:10B900000024F4000000000000000000000000001F
:10B910000000000000000000000000000000000027
:10B920000000000000000000000000000000000017
:04B930000000000013
:04000005000180C1B5
:00000001FF
