:020000040001F9
:10800000D8310020F58001000781010009810100BD
:108010000000000000000000000000000000000060
:108020000000000000000000000000000B810100C3
:1080300000000000000000000D8101000F81010020
:108040001181010011810100B78A01001181010035
:108050001181010000000000118101001181010067
:108060001181010011810100A98901001181010024
:1080700011810100118101001181010011810100B4
:1080800011810100118101001181010011810100A4
:108090001181010011810100F38C010011810100A7
:1080A00011810100118101000000000000000000AA
:1080B00000000000000000000000000000000000C0
:1080C0000348854601F00EFD004800476F8301001C
:1080D000D8310020401E00BF00BF00BF00BF00BF5E
:1080E00000BF00BF00BF00BF00BF00BF00BFF1D195
:1080F00070470000074802680F210A4302600648E3
:10810000804706480047FEE7FEE7FEE7FEE7FEE79A
:10811000FEE7000024050040C5810100C180010088
:1081200032483349086070473248008CC0B2012899
:1081300012D13048808C0007000F00280CD12D4848
:10814000806AF0210840402806D12A48C06A0840C9
:10815000002801D1012070470020FCE72548008C51
:10816000C0B201282CD12348808C0007000F0028C2
:1081700026D12048806AF0210840002806D11D48F9
:10818000C06A0840002801D1012070471948806A60
:10819000F0210840102806D11648C06A084000287F
:1081A00001D10120F1E71348806AF021084030280E
:1081B00006D11048C06A0840002801D10120E4E738
:1081C0000020E2E710B5FFF7C9FF002805D00A48F4
:1081D0000A494860C8130A498861FFF7A5FF0028CB
:1081E00002D001200749886010BD00000024F4007F
:1081F00000280020C00F00F0DFFF07C0000500408E
:10820000006C0040000600400F2001218140614ABF
:10821000916000BF00BFBFF34F8F5F485F49C860E8
:10822000BFF34F8F00BF00BFFEE703460C46224658
:1082300019465B48FFF7E8FFF8B506460D46287873
:10824000062802D0072821D110E06F68304600F0E0
:10825000F2FA044600BF2346002B05D000BF51A20E
:1082600087211846FFF7D0FF00BF10E0304600F02E
:1082700014FB044600BF2346002B05D000BF49A2D3
:108280008F211846FFF7C0FF00BF00E000BF00BF0E
:10829000F8BD10B50446204600F07FFF204600F0F0
:1082A00049FA10BD70B500BF0023482240490D2097
:1082B00000F0D7FC054600BF2B46002B05D000BFC1
:1082C00038A2B2211846FFF79FFF00BF00BF394810
:1082D00000F0FDFC044600BF2346002B05D000BF84
:1082E00030A2B6211846FFF78FFF00BF70BD38B52A
:1082F00000F024FE044600BF2346002B05D000BF3B
:1083000028A2C4211846FFF77FFF00BF2A4800902B
:10831000684600F029FE044600BF2346002B05D026
:1083200000BF20A2C8211846FFF76EFF00BF38BD6E
:1083300010B500F042FE044600BF2346002B05D0D6
:1083400000BF18A2D6211846FFF75EFF00BF10BD80
:1083500010B53DDF044600BF2346002B05D000BF0B
:1083600010A2DF211846FFF74FFF00BF10BD00F03D
:1083700081FB00F0AFFA00F0F1FAFFF793FF00F095
:1083800001FAFFF7B4FFFFF7D3FF01E0FFF7E0FFCB
:10839000FCE70000000500500400FA0500ED00E0D5
:1083A000EFBEADDE2E2E5C6D61696E2E63000000A7
:1083B000302800209382010039820100024600210A
:1083C0000AE024204843FE4B185A904203D124204F
:1083D0004843C0187047491C0829F2DB0020F9E720
:1083E000F8B5044601206060F6480178684681705F
:1083F000F5490180012720886A46394680DF054615
:1084000000BF2E46002E06D000BFF0A25D213046F0
:10841000FFF7FAFE00BF00BFF8BD70B504460220AA
:108420006060208821460C3182DF054600BF2E4661
:10843000002E06D000BFE5A26C213046FFF7E4FE17
:1084400000BF00BF70BD70B5044603206060208887
:1084500021461A3183DF054600BF2E46002E06D086
:1084600000BFDAA27A213046FFF7CEFE00BF00BF80
:1084700070BD7FB50446042060600121684601702C
:108480000021417001210171E18BC1800021018136
:10849000022141810390208801A987DF054600BFA2
:1084A0002E46002E06D000BFC8A292213046FFF70C
:1084B000ABFE00BF00BF7FBDF8B50446A088FFF744
:1084C0007DFF0546002D38D06868012835D1E08849
:1084D000002802D0062068602FE0BA48017868467C
:1084E0008170B949018000261DE068468178F2005C
:1084F00020460A3010188078814213D168460188DE
:10850000F20020460A30805A81420BD1F200204608
:108510000A3011180822A81801F06CF82846FFF755
:108520007CFF03E0761C2089B042DEDC00BF686877
:10853000012801D10620686000BFF8BDF8B50546E6
:10854000A888FFF73BFF0446002C51D06068022842
:108550004ED1E888002802D00620606048E09948A3
:10856000017868468170984909310180002635E01C
:10857000684681780A2032464243281810188078CD
:1085800081422AD1684601880A203246424328188F
:10859000805A814221D10A203246424328181118BC
:1085A0000A222046103001F025F8E08A801C608302
:1085B0002889401EB04209DD701C0A21414328462B
:1085C0000A300818C088401EA08302E00021C94379
:1085D000A1832046FFF737FF03E0761C2889B042CD
:1085E000C6DC00BF6068022801D10620606000BFC1
:1085F000F8BDF8B50446A088FFF7E0FE0546002D5B
:108600003BD06868032838D1E088002802D00620D3
:10861000686032E00121684681707249018000265D
:1086200021E06846817806203246424320460A30DF
:1086300010180079814215D168460188062032461B
:10864000424320460A301018408881420AD1062051
:108650003146414320460A30415AE9832846FFF714
:1086600008FF03E0761C2089B042DADC00BF6868AE
:10867000032801D10620686000BFF8BD70B505462B
:10868000A888FFF79BFE0446002C0BD060680428E6
:1086900008D12989E08B814202D00620606001E088
:1086A0000520606070BD70B50446A088FFF786FEA7
:1086B0000546002D20D0686805281DD12189288B0A
:1086C000814219D1A089012816D1A07B002809D1A7
:1086D0002021495D0846083001218140424AD1608D
:1086E00000BF09E02021495D084608300121814092
:1086F0003D4A916000BF00BF70BD70B5054600BF28
:10870000287A002801D1012000E000200646002E32
:1087100006D100BF2DA2FF215831FFF775FD00BF24
:1087200000BFA888FFF74AFE0446002C01D00620AF
:10873000606070BD10B5044620883038030001F039
:108740005CFA0A061E0A0E1E1E1E12161A1E20466D
:10875000FFF7B2FE14E02046FFF7F0FE10E02046DF
:10876000FFF747FF0CE02046FFF788FF08E02046B0
:10877000FFF799FF04E02046FFF7BFFF00E000BFCE
:1087800000BF10BD7FB5194B5A6819689868DB683F
:1087900003930192009102900A49684652DF054610
:1087A00000BF2E46002E07D000BF08A2FF21913146
:1087B0003046FFF729FD00BF00BF08200F2120E051
:1087C0007828002009280020019000002E2E5C63EC
:1087D0006C69656E745F68616E646C696E672E6348
:1087E00000000000022900000005005060A7010001
:1087F000012205231B07072636029B1986009A5182
:10880000401C8842F4D900BF00240BE00021242042
:1088100060432E4A80184160242060438018203035
:108820000470641C082CF1DB0020294908707FBD0E
:1088300027480078704770B506460425002427E0D5
:108840002420604321494018406800281FD124207B
:1088500060430A468118304600F0F3FB0546002DC0
:1088600014D1012124206043184A801841603188C6
:1088700024206043115216480078401C14490870A7
:10888000242161438818FFF7ABFD00BF02E0641CA0
:10889000082CD5DB00BF284670BD38B505466946B3
:1088A000284600F0F8FB0446002C0DD100984068E3
:1088B000002808D006480078401E054908700020AE
:1088C0000099486000E00824204638BD7828002040
:1088D0000828002010B5122000F022F8132000F024
:1088E0001FF810BD10B5122000F023F810BD10B510
:1088F000122000F023F810BD10B5122000F023F86C
:1089000010BD10B5132000F014F810BD10B51320E1
:1089100000F014F810BD10B5132000F014F810BDCD
:1089200001210522120707231B02D2188300D15010
:10893000704701218140084A9160704701218140C0
:10894000054AD1607047044949680122824051407C
:10895000014A5160704700000005005010B500202A
:108960003B494860092008613A483B491522920179
:1089700089188860012080043849486002203849FD
:1089800008600A2001218140364A116000BF03219E
:1089900000F026F80A2001218140334A116000BF0F
:1089A00001202D49086010BD10B530480068401CFA
:1089B0002E4908602A48C038806801280FD127480E
:1089C0004068012189040840002808D0002124487B
:1089D000C0388160FFF790FF01201F49C86010BDBB
:1089E00010B5002819DA224A03071B0F083B9B0821
:1089F0009B00D2588307DC0EFF23A3409A438B07CA
:108A00001B0E8407E40EA3401A43194B0407240FDE
:108A1000083CA408A4001A5118E0134A03231B02BF
:108A2000D21883089B00D2588307DC0EFF23A34093
:108A30009A438B071B0E8407E40EA3401A430A4B8C
:108A4000032424021B198408A4001A5110BD00003D
:108A500000A500401A06000000A0004000A300404E
:108A600000A2004080E200E000E100E004280020D5
:108A70001CED00E008B500200B230A22092100901C
:108A8000082000F06FFD08BD70B504460D4629466C
:108A9000204600F05FF870BD10B5042029494860F9
:108AA0000121022000F016F8022001218140264A0F
:108AB000116000BF10BD10B500F00EFD2349087015
:108AC0000846007800F033FD10BD10B5044600F0F4
:108AD00003FD10BD10B5002819DA1D4A03071B0F4E
:108AE000083B9B089B00D2588307DC0EFF23A34062
:108AF0009A438B071B0E8407E40EA3401A43144BC2
:108B00000407240F083CA408A4001A5118E00E4AD8
:108B100003231B02D21883089B00D2588307DC0E64
:108B2000FF23A3409A438B071B0E8407E40EA34048
:108B30001A43054B032424021B198408A4001A516C
:108B400010BD00000023004000E100E00A280020E2
:108B50001CED00E070B504460D46C02000F0E7FCB7
:108B600019E02078C02802D0D0280ED106E0D0200D
:108B700000F0DDFCD12000F0DAFC0AE0D02000F0AB
:108B8000D6FCD22000F0D3FC03E0207800F0CFFC2C
:108B900000BF00BF641C28466D1E0028E1DCC02019
:108BA00000F0C5FC70BD000070B506460C461546C9
:108BB00029462046FFF739FB70BDF8B55A480078C2
:108BC000002800D1F8BD59480068002801D10120D3
:108BD00000E00020054656480068002801D1012029
:108BE00000E00020064600BF002D14D168464BDF90
:108BF0000446052C01D101250CE0002C06D000BF55
:108C00004CA271212046FFF7FFFA03E04749009884
:108C10000968884700BF002E1AD14F48008800908D
:108C200069464E48006850DF0446052C01D10126F4
:108C30000DE0002C06D000BF3EA288212046FFF7A1
:108C4000E3FA04E04548006839490968884700BFED
:108C5000002D02D0002E00D000E0C5E700BF00BF0D
:108C6000B0E7FFB581B00C4616461F46002C02D176
:108C7000072005B0F0BD20468107890F002901D1EA
:108C8000012100E00021002901D10720F1E733484C
:108C9000046031480680324807603249019810DF8D
:108CA0000546002D01D02846E3E701201E49087043
:108CB000162023DFDDE710B511DF0446002C01D0BC
:108CC000012000E0002018490870204610BD014630
:108CD000002901D10E207047154801600020FAE7F5
:108CE0000146002901D10E20704710480160002084
:108CF000FAE770B51A480068002811D018480068D3
:108D00008047044600BF2546002D07D000BF09A2BA
:108D1000FF213D312846FFF777FA00BF00BF01E091
:108D2000FFF74BFF70BD0000162800201C28002014
:108D3000182800202E2E5C2E2E5C636F6D6D6F6EDA
:108D40005C736F66746465766963655F68616E64A1
:108D50006C65722E6300000014280020102800208B
:108D60000C280020A98B01000021C200F84B99506B
:108D7000C200D2185171C200D2181171704701217E
:108D8000C200F44B99540021C200D2185160491E10
:108D9000C200D2185180704770B503460C460820B7
:108DA00000210FE0CD00EB4E755D2540002D08D071
:108DB0000520CD00AD196D889D4202D111600020C3
:108DC00002E0491C0829EDD300BF70BD10B5044670
:108DD0002068C000DF49085C012807D02068FFF741
:108DE000CEFFDB484079401ED949487110BDF7B528
:108DF00086B01446002507980068059074E0059831
:108E0000405D0490691C0598405C0390A91C05987E
:108E1000401820600498401EA080039809282BD099
:108E200004DC012807D0032857D124E0162824D0D9
:108E3000FF2852D122E020680078C007C00F002828
:108E400018D02068007802210840022812D120683A
:108E500000780421084004280CD1206800780821FB
:108E60000840082806D12068007810210840102802
:108E700000D133E000BF31E030E02FE027683E460C
:108E8000B078022828D1F078152825D1002002904A
:108E900014E000BF02984100301D405C0190019831
:108EA0000002019002984100301D08184078019995
:108EB0000843019000BF0298401C029002980828C5
:108EC000E7D3062238461930069900F093FB1F219C
:108ED0003846FFF7D9FD00BF00E000BF00BF05988E
:108EE000405D401C451900BF07988088A84286D87D
:108EF000002009B0F0BD10B5974876DF0446002C7D
:108F000009D1934800790221084391490871002151
:108F1000022000F0B9FA204610BD10B577DF0446F4
:108F2000002C09D18A4800790221884388490871B8
:108F30000021032000F0A8FA204610BD10B500243F
:108F400003E02046FFF710FF641C002CF9D000243A
:108F500003E02046FFF713FF641C082CF9D301201F
:108F60007E490870002010BD30B5014600BF7B4827
:108F70000078002801D1082030BD00BF002901D1B0
:108F80000E20F9E70868002801D10E20F4E700BFA1
:108F900004206F4C2468002C01D10023002000BF66
:108FA0000246002A07D1DC00694D086828510120DB
:108FB000DC00641920711046DEE710B500BF674879
:108FC0000078002801D1082010BD00BF00BF604814
:108FD0000068002801D10820F6E700BFFFF78BFFEB
:108FE000F2E7F8B504460E4600BF5C48007800285A
:108FF00001D10820F8BD00BF00BF55480068002817
:1090000001D10820F6E700BF002C01D10E20F1E7C6
:10901000002E01D10E20EDE720886A460421FFF7DB
:10902000BBFE0546002D0AD13178208866DF054653
:10903000002D04D108200099C900464A5054284602
:10904000D8E7F8B504460D4600BF4448007800282C
:1090500001D10820F8BD00BF00BF3D4800680028CE
:1090600001D10820F6E700BF002C01D10E20F1E766
:10907000002D01D10E20EDE720886A460421FFF77C
:109080008BFE0646002E04D10098C00031494018DE
:1090900045603046DEE7F8B504460D4600BF2F4870
:1090A0000078002801D10820F8BD00BF00BF284883
:1090B0000068002801D10820F6E700BF002C01D18C
:1090C0000E20F1E7002D01D10E20EDE720886A4641
:1090D0000C21FFF761FE0646002E05D10098C00066
:1090E0001C494018406828603046DDE7F0B51FB4E1
:1090F00086B016461F46002213463046394600F019
:1091000031FC03D1002016490BB0F0BD069800F0E9
:1091100015FC0022134B059104903046394600F0AF
:109120002DFB03910290059B049A00F08FFB0446EF
:109130000D4600220B4B2046294600F013FC15D2A9
:109140000022094B2046294600F0F2FDDCE7000032
:10915000202800209829002070A70100282800203E
:109160000000F0BF0000F03F00002440CE4ACF4B8B
:109170002046294600F0DCFDCD4ACE4B01910090FF
:1091800000F0FCFACC4ACD4B0391029000F044FA77
:109190000591049005990498B6E7F0B591B004469E
:1091A00000200F9000BFC6480078002801D111B000
:1091B000F0BD00BF0020C0430E9000200A900027A1
:1091C000208819285ED004DC102807D0112876D119
:1091D0003EE01B2874D01D28F9D124E1B94800795C
:1091E00004210840042832D110AA0221B648FFF712
:1091F000D3FD0746002F2AD1B248007904218843C5
:10920000B049087101200F90A1880E91062108A88D
:109210000173A01D0C9010216846818600200A90E1
:10922000A0881099C900A94A89184880042010997B
:10923000C900505401200F90A2484079082803D15A
:109240008820A049087102E0FFF755FE0746F0E0CC
:10925000A08810AA0C21FFF79FFD0746002F10D110
:1092600008201099C900994A505401200F90A188F4
:109270000E91072108A80173A01D0C9008216846D3
:109280008186D6E0A07902281BD18E480079022180
:109290000840022831D18B480079884389490871F8
:1092A00001200F90811E0E91032108A80173002058
:1092B0000C900021684681860D200A901DE0B7E0E1
:1092C0001CE0A079032818D110AA02217E48FFF7DC
:1092D00063FD0746002F10D110A8FFF777FD01208E
:1092E0000F90811E0E91062108A8017300200C909A
:1092F0000021684681860D200A909AE03B20C043F9
:1093000009900020089003E00898401CC0B2089023
:1093100008980628F8DB0D20205600F00FFB0546C4
:109320002A460B465320C043FFF7E0FE654800790C
:1093300002210840022875D16248007904210840C2
:1093400004286FD05F48007988210840882869D0B8
:10935000A07B4007800F002804D0A07B4007800F2F
:1093600001285FD10D216156099881425ADB002006
:109370000790019002900622E11D01A800F03AF941
:1093800020460F300590A07BC0086946088303AAD9
:1093900005A901A8FFF72BFD0746002F05D003AA5A
:1093A00005A901A8FFF723FD07460798012838D132
:1093B00010AD2A4601214448FFF7EEFC0646002E78
:1093C0000AD102202968C900404A50543D484079DA
:1093D000401C3C49487100E0042600BF3746002F7E
:1093E0001FD1FFF79AFD0746394A3A49A01D78DF99
:1093F0000746002F03D010A8FFF7E8FC11E0314822
:109400000079042108432F49087101200F9005219C
:1094100008A80173A01D0C900721684681860020D2
:109420000A9000BF05E0A088A11D65DF074600E0A7
:1094300000BF00BF0F98002819D00BA90EA80A9AE8
:1094400000F017F808A8007B072810D110A8FFF734
:10945000BDFC1C480079882809D11A480079882168
:10946000884318490871FFF746FD074600BF00BF53
:109470009DE6F8B504460D46164612480768324682
:1094800029462046B847F8BD7FB504460D466846D4
:10949000047000210181002001902A46694603A83A
:1094A000FFF7E7FF7FBD00004A0C022B87D61E4066
:1094B0007BF7C77BD5CAEC3FD122DBF97E6ABC3F84
:1094C0002828002020280020FFFF000098290020E5
:1094D00080A7010070A7010000BF424880680128F2
:1094E000FBD100203F4988603F488069C0B2704787
:1094F00070B504460D4601260AE02046641E002889
:1095000004DB7D20C000FEF7E5FD01E0002603E05E
:10951000344880680128F0D100BF002C05DB002012
:1095200030498860304880692870304670BD2E49C7
:10953000C86100BF2B49C9690129FBD10021294A13
:10954000D161704730B50346002528466D1C1C5C70
:1095500005E02046FFF7EBFF28466D1C1C5C002C45
:10956000F7D130BDF8B507460C4615461E462046D5
:1095700000F025F80021304600F02AF81A48C460AF
:109580004661069800280DD0384600F018F80021F2
:10959000284600F01DF81448056187600120124933
:1095A0004031C86211481049486204200860012017
:1095B0000F498860086000200A498860F8BD0121D1
:1095C0000522120707231B02D2188300D1507047CF
:1095D00010B58A0005231B07072424021B198400E9
:1095E0001A5110BD002100400025004000E0D701C5
:1095F0000020004003460B439B0703D009E008C945
:10960000121F08C0042AFAD203E00B780370401C32
:10961000491C521EF9D27047F0B50746084658401B
:1096200087B0C00F049048000E4659004008490812
:10963000BC1A884105D2384631461E4617460B46AD
:1096400002465800400810434CD0300D03904005AE
:109650005900400D490D0590401A0290402872DAD9
:1096600018030121000B090508430190049800929A
:10967000002805D0019952420020884100920190B3
:10968000029840210A1A0199009800F07FF90546D6
:109690000C466B4607CB00F089F9C0197141039A5B
:1096A0000E0D0023D71756401A467A40164344D071
:1096B000049A002A2DD0029A012A039A15DC120579
:1096C000C01A914101263605001C7141D20F059E3A
:1096D000D2070093019202962A46234600F086F9AB
:1096E00007B0F0BD38463146FAE71605224A0F4664
:1096F000B218C01AB74101210905001C4F410018DA
:109700007F41114618187941E20F10436D196441E9
:1097100013E0E2076D0815436408C2071443039A77
:1097200001261205C01A91413605001C7141CE0771
:10973000400830434908C01851412A46234600F0EA
:1097400048F9CDE7FFE7049801224000C117121A3B
:1097500000238B4104983146C417381AA141EEE723
:1097600030B40124E407634030BC55E730B4012431
:10977000E407614030BC4FE70000E0FFF0B51FB4E4
:1097800088B00B990998002448400999C00F4900F6
:1097900049080991C0070B990090490049080B91AD
:1097A00009990898A64608431CD00B990A980843C3
:1097B00018D0099801244000420D4800410D099835
:1097C00024050003000B204309900B980003000BB5
:1097D00020430B9050181C49401800220190144659
:1097E000104605E0002001460DB0F0BD032801DA67
:1097F000034600E003239C46C11A0AAE0AE05F005C
:1098000008ADED5B4F00F75B7D430027AA187C4154
:10981000491C5B1E6145F2DD410004AB5A52210434
:10982000120C0A43240C401C0828DFDB019802902C
:109830000099704601910090059B049A079906983B
:1098400000F0D4F8D0E700000DFCFFFFF0B50C46A7
:109850005C4085B0E40FE40703944C0000266408E4
:1098600059009446490802460296224321D0624696
:109870000A431ED06200570D4A000E032303550D04
:10988000012402462C492405781B1B0B360B40187B
:1098900023432643614600901C46501AB44103D32B
:1098A0000098401C009002E0921800985B4100284C
:1098B00003DA0020014605B0F0BD002001210905B2
:1098C0000746864611E064461D46141BB54106D383
:1098D0006546521BB341744607430C43A646CD0769
:1098E00040084908284392185B4105460D43EAD1D8
:1098F0001046184313D06046194650407140084343
:1099000006D06046101AB34106D20122002306E0B9
:1099100000220123DB0702E00122D243531000980A
:1099200074460105381C6141029C039D0019694180
:1099300000F04FF8BFE70000FD0300000EB5C217AE
:10994000C10F5040CA0740180021054B02930192F5
:1099500000910A460B4600F049F803B000BD000034
:109960003304000010B5002904DB0124E407404261
:109970008C412146002B04DB1C460123DB075242AD
:10998000A3418B4200D1824210BD000010B5202AB5
:1099900004DB0146203A9140002010BD9140202375
:1099A0009C1A0346E3401943904010BD10B5202A8D
:1099B00006DBCB170846203A1041C1170B4306E0DF
:1099C0000B461341D0402024A21A91400843194667
:1099D00010BD10B5002B08DA0024401C614192181C
:1099E0005B411A4301D14008400010BDF0B51FB4DF
:1099F00082B005460C0003D0084600F0E7F802E00C
:109A000000F0E4F820300246009021462846FFF797
:109A1000BDFF049B059A04460F46184311430843B3
:109A200014D0184610431BD0009840210A1A18463B
:109A3000059900F069F805460E46009A05990498C4
:109A4000FFF7A4FF084305D0012004E02046394673
:109A500007B0F0BD0020C11705430E432C43374328
:109A600000990E986305401A7905E40A00220C4318
:109A7000FD0A0A3002D500200146E9E70105101968
:109A800069410C9C0D9D00196941FFF7A2FFDFE7BA
:109A900070B54B005B0803430BD04B005C0D0026F8
:109AA00033466542B341D417AD1AA34102DB00200F
:109AB000014670BD12053018514170BD10B5002926
:109AC00004DB0124E40740428C412146002B04DBE7
:109AD0001C460123DB075242A341994200D1904228
:109AE00010BD0000064C0125064E05E0E36807CCDA
:109AF0002B430C3C98471034B442F7D3FEF7E4FAFA
:109B000018A8010038A8010010B5202A04DB084677
:109B1000203AD040002110BD0B46D340D040202435
:109B2000A21A91400843194610BDFEB500231A46FB
:109B30001B1A8A4103DB0020014603B0F0BD4A0036
:109B40000D0301212D0B0905520D0D43D10702D143
:109B500000186D41521E5110FF31FF3101310027B5
:109B600004463E46384600970191024601210020F6
:109B70000905FFF7C9FFC3197141F8183246844639
:109B80008E464A4161462846611A904104D3604698
:109B9000241A954176461F46241900986D41401CB1
:109BA00000903428E1DDF91930467041091BA841C5
:109BB00003D20022D243134601E00022134601984B
:109BC0000105381C7141FFF704FFB6E72021020CA4
:109BD00001D010211046020A01D0104608390209AE
:109BE00001D01046091F820801D01046891E420884
:109BF00001D0881E7047081A704730B47446641E3E
:109C00002578641CAB4204D3635D5B00E31830BC71
:109C100018471D46F8E700004900CA020243100039
:109C200000D004204A0D01D001221043044A490DFE
:109C3000914201D102210843012800D1052070473B
:109C4000FF070000F8B504464F1EC8000838211869
:109C500015461E46086849683A4606239A4310D0BE
:109C60002A463346FFF78AFD3A46D200083AA3183F
:109C70001A687F1E5B68FFF7CFFC06223B469343C2
:109C8000EED1022F23D0042F11D0062F2FD12A4638
:109C90003346FFF773FDE36AA26AFFF7BDFC2A466D
:109CA0003346FFF76BFD636A226AFFF7B5FC2A466D
:109CB0003346FFF763FDE369A269FFF7ADFC2A466F
:109CC0003346FFF75BFD63692269FFF7A5FC2A466F
:109CD0003346FFF753FDE368A268FFF79DFC2A4671
:109CE0003346FFF74BFD63682268FFF795FCF8BD2C
:109CF000034A10B500201107FFF7CAFE10BD00008F
:109D000001FDFFFF02E008C8121F08C1002AFAD1B6
:109D100070477047002001E001C1121F002AFBD1EB
:109D20007047000001490860704700002C2800209F
:109D3000F0B51FB496B0054684460C461898199A9B
:109D40000090490050006300490840080493002D2A
:109D500001D0012600E000269E19FE4BF318FE4EAE
:109D6000B3420AD3009E5300002E00D001269F1953
:109D7000F84EBF197610B74207D260462146199BAC
:109D8000189AFFF749FC1BB0F0BD009F06463E4302
:109D900071D0F24EB44201D12E006CD06746049EC1
:109DA000002F00D00127F719ED4EB74206D8009FCB
:109DB000002F00D00127DB19B34207D928462146DE
:109DC000199B189AFFF728FC1BB0F0BD00230793DE
:109DD000002C2EDAE34B98422BDAE34B984201DB5E
:109DE000022325E0DD4B984223DBE04B060DF31800
:109DF000142B0EDD3426F71A009BFB401E46BE4096
:109E0000009FBE4215D1DE07F60F02239B1B07936E
:109E10000FE0009E002E0CD11426F61A0346F340E4
:109E20001F46B340834204D1FE07F60F02239B1B5B
:109E3000079363460B431FD1002A1DDA002C04D080
:109E40000798022801D001280AD00220FFF76AFFF4
:109E5000002213461046C149FFF7F8FC1BB0F0BDC5
:109E60000220FFF75FFF2A4623460020BB49FFF789
:109E7000EDFC1BB0F0BD14E0009B002B62D1B94B90
:109E8000984221D1BA48844202D16046002808D0C5
:109E9000B248814209DB002A10DB189811461BB03A
:109EA000F0BD0020AD491BB0F0BD002A06DA114616
:109EB0000122D207189851401BB0F0BDAD4979443A
:109EC000086849681BB0F0BDA44EB04224D1002AF6
:109ED0001EDA002905D0994213D16046002809D026
:109EE00016E06046002875D19E49E20FD207114363
:109EF0001BB0F0BD0020E20F0146D20711431BB09A
:109F0000F0BD994204DA2A4623460020314669E032
:109F1000284621461BB0F0BD994213DA01239B0766
:109F20009A4204D12A46234610461946EBE3924B47
:109F30009A4207D1231E05DB2846194600F0ECFBA8
:109F40001BB0F0BD63005B086646002E30D10029CF
:109F50000AD0844EB1422BD1002C0FDD002A1EDB2B
:109F6000002031461BB0F0BD0798022817D0002C06
:109F700015D0012813D1002C15DB10E0002C17DAC6
:109F80000798002A09DB012803D0002075491BB07F
:109F9000F0BD002079491BB0F0BD012803D000209E
:109FA00001461BB0F0BD00200121C9071BB0F0BD68
:109FB000E617761C079F0D963E430CD0704EB042BC
:109FC0007EDD704E704BB04216DD99420EDC002AE9
:109FD0001CDB28E05FE20120FFF7A4FE002213460D
:109FE00010461146FFF732FC1BB0F0BD5B488142C2
:109FF00002DB002A0ADC16E0994202DA002A05DBBD
:10A0000011E0564B994217DD002A0CDD0220FFF7C4
:10A0100089FE07215D4A00200907FFF739FD490045
:10A020004908002251E20220FFF77CFEFFF760FEA4
:10A0300049004908002248E2002228462146FFF74D
:10A040008FFB012204460D46D243FFF721FD504A03
:10A05000504BFFF78BFB22462B46FFF78FFB00226E
:10A06000454BFFF783FB06460F4622462B4610461C
:10A070001946FFF783FB3B463246FFF77FFB064658
:10A08000032209915207444B20462946FFF776FBED
:10A090000F460C90414A404B30460999FFF76EFB42
:10A0A000064602913E4A3F4B20462946FFF766FB93
:10A0B0003246029BFFF754FB04460B46024600E083
:10A0C00011E0099139460C98FFF7A6FA00250E46D3
:10A0D0003B4628460C9AFFF743FB2246099BFFF7B5
:10A0E00045FB0B468EE1012400202405A14207DA3E
:10A0F000352228461946FFF7CBFC05463420C043DD
:10A100000A1512181948101804900803000B134977
:10A1100006460E432449884201DC002003E023491F
:10A12000884202DA0120074604E004980027401C18
:10A13000361B04901E49F80079440F9008184368B4
:10A14000026828463146FFF70BFB019119490C9034
:10A15000794431E0FFFF1F00FFFF0F000000F03FD8
:10A160000000E0FF0000F07F0000404301FCFFFF23
:10A170000000F0BF4E0900000000E03F0000F0FFCB
:10A180000000E0410000F043FFFFEF3F010300004B
:10A19000555555555555D53F4715F73FFE822B650B
:10A1A00044DF5DF80BAE543E8E9803007AB60B0088
:10A1B0004C060000340600000F9808184368026837
:10A1C00028463146FFF728FA02460B460020FE4992
:10A1D000FFF73CFB09910E90019B0C9AFFF7CEFA1A
:10A1E00005910A900B91F94801217844006812907A
:10A1F000701049070843B90440180121C9044718E1
:10A20000F3490F98794408184368026800243946D6
:10A210001298FFF7A5FA2A463346FFF7A7FA024637
:10A220000B4620460B99FFF7A9FA054600913B46DD
:10A230002046129A0B99FFF7A1FA019B0C9AFFF79F
:10A2400095FA2A46009BFFF78BFA099B0E9AFFF7B7
:10A2500095FA109105990A9A0E900B461046FFF751
:10A260008DFA05460246DB480E460B460621784429
:10A27000FFF7E8FC07462A46334606911046194682
:10A28000FFF77CFA3A46069BFFF778FA05460E463A
:10A290002046059B0A9A0B99FFF7BEF9109B0E9A70
:10A2A000FFF76CFA2A463346FFF7B6F9019106909C
:10A2B0000B9922460B461046FFF760FAC64D002266
:10A2C0002B4603910090FFF7A7F9019B069AFFF731
:10A2D000A3F90F4622462B462046FFF741FA039B7F
:10A2E000009AFFF73DFA019B069AFFF73FFA0546F1
:10A2F0000E4622463B4610460B99FFF73FFA019166
:10A300000C9028463146059B0A9AFFF737FA054616
:10A310000E463B46224610990E98FFF72FFA334619
:10A320002A46FFF779F906460F460B460246019981
:10A330000C98FFF771F900200D460446019B0C9A1A
:10A34000FFF70EFA3B463246FFF710FA06460F4675
:10A3500007225207A14B20462946FFF70FFA019129
:10A3600002909F4A9D4B30463946FFF707FA064652
:10A370000F469C4A9C4B20462946FFF7FFF9324680
:10A380003B46FFF749F9994A04467A440F9810185A
:10A39000436802682046FFF73FF905910A90049848
:10A3A000FFF7CCFA07460391059B0A9A0199029898
:10A3B000FFF732F98E4A04467A440F981018436822
:10A3C00002682046FFF728F93A46039BFFF724F975
:10A3D00000250E463A462846039BFFF7C1F9854AF9
:10A3E00004467A440F981018436802682046FFF725
:10A3F000B7F9019B029AFFF7B3F9059B0A9AFFF799
:10A40000B5F90B4600210A91079A0D996E4C521E20
:10A41000114301D1784C0A91002219990492024605
:10A420000F461898FFF7AAF9009007913B46049A47
:10A4300019991898FFF794F92A463346FFF79EF9C1
:10A44000079B009AFFF7E8F8099110902A463346D7
:10A4500039460498FFF792F906460F46099B109A71
:10A46000FFF7DAF8654A0D46914224DB5242AA18FA
:10A47000024310D132463B46FFF772F90490039134
:10A480005F4A604B09991098FFF7C6F8039B049A3E
:10A49000FFF714FB2FD20220FFF744FC07215A4A92
:10A4A00000200907FFF7F4FA49004908E20FD20734
:10A4B00011431BB0F0BD6A00544B52089A421AD3A4
:10A4C000534AAA1802430CD102E011431BB0F0BD5D
:10A4D00032463B46FFF744F9099B109AFFF7EEFA24
:10A4E00009D80220FFF71EFCFFF702FC49004908CB
:10A4F000E20FD207E9E768000023400845490493CA
:10A50000020D454B5218984223DD01200005521CD4
:10A51000D04040194200520D5118404A7A44126806
:10A52000034694463E4ACA40934302030120120B5D
:10A53000000510181422511AC8400490002D01DAA9
:10A5400040420490624630463946FFF709F9064614
:10A550000F4632463B4609991098FFF75DF80020F8
:10A560000D4602462F4B0E90FFF708F901910C9013
:10A570002D4A2E4B29460E98FFF700F907911290AD
:10A5800032463B4629460E98FFF7EAF8099B109A97
:10A59000FFF7ECF8264A274BFFF7F0F8079B129AD3
:10A5A000FFF73AF807460B460246099101990C98C5
:10A5B000FFF732F80E460546019B0C9AFFF7D0F8DC
:10A5C0003A46099B38E000000000F03F22060000F8
:10A5D00080050000460500000000084009C7EE3F66
:10A5E000FD033ADCF5015B14E02F3EBE1A040000C7
:10A5F000DC030000B20300000000F0BF0000904048
:10A60000FE822B654715973C0103000000CC90406B
:10A6100000346F3F01FCFFFF0000E03FF00200004C
:10A62000FFFF0F00432EE63F396CA80C615C20BE93
:10A63000EF39FAFE422EE63FFFF798F82A463346F6
:10A640000991109010461946FFF798F802460E90AF
:10A650002F480F460B4605217844FFF7F3FA3B4697
:10A660000E9AFFF78BF82A463346FFF77FF8074626
:10A67000089128463146099B109AFFF77FF8099BFD
:10A68000109AFEF7C9FF012303910C9000229B074B
:10A6900038460899FFF764F801910E903A4628462B
:10A6A0003146089BFFF76AF8019B0E9AFFF7CEF838
:10A6B000039B0C9AFFF754F82A463346FFF750F8ED
:10A6C0000022144BFFF752F8064604980D46000589
:10A6D00041190915002911DC30462946049AFFF773
:10A6E000D7F9FFF799FA042801D1FFF701FB3046AB
:10A6F0002946049AFFF7CCF9064600E029180B46D4
:10A70000324621460A98FFF739F81BB0F0BD000029
:10A710008C0100000000F03FF8B506460C46FFF73C
:10A7200004FA05000F4600D00120014349000B4800
:10A730004908411AC90F0DD0002E01D0012100E0B7
:10A7400000210C4361004908401AC00F02D10120CA
:10A75000FFF7E8FA28463946F8BD00000000F07F10
:10A76000B3585540506011E38F96080000009A6678
:10A7700000000000000000000500050000000000CF
:10A780009001200300009001000000000000F03F55
:10A79000000000000000F83F000000000000000082
:10A7A0000000004003B8E23F00000000000000008D
:10A7B00006D0CF43EBFD4C3E033333333333E33F1B
:10A7C000FFAB6FDBB66DDB3F4D268F515555D53F47
:10A7D00001411DA96074D13F65DBC9934A86CD3F15
:10A7E000EF4E454A287ECA3F3E5555555555C53F03
:10A7F00093BDBE166CC166BF2CDE25AF6A56113FF5
:10A80000F16BD2C541BDBBBED0A4BE726937663EF6
:10A81000000000000000000038A80100002800200F
:10A8200030000000049D010068A8010030280020CD
:10A83000A8090000149D01000024F400000000009D
:10A840000000000000000000000000000000000008
:10A8500000000000000000000000000000000000F8
:08A860000000000000000000F0
:04000005000180C1B5
:00000001FF
